:020000040800F2
:1000000000100020D90100086B18000885160008B0
:1000100069180008C3120008452A00080000000003
:100020000000000000000000000000004126000861
:100030007F150008000000003D250008F926000893
:10004000F3010008F3010008F3010008F3010008C0
:10005000F3010008F3010008F3010008F3010008B0
:10006000F3010008F3010008F3010008F3010008A0
:10007000F3010008F3010008F3010008F301000890
:1000800015130008F3010008F3010008F30100084C
:10009000F3010008F3010008F3010008F301000870
:1000A000F3010008F3010008F3010008F301000860
:1000B000F3010008F3010008F3010008F301000850
:1000C000F3010008F3010008F3010008F301000840
:1000D000F301000851280008F301000899280008DE
:1000E000F3010008F3010008F301000800F002F832
:1000F00000F049F80AA090E8000C82448344AAF179
:100100000107DA4501D100F03EF8AFF2090EBAE876
:100110000F0013F0010F18BFFB1A43F0010318473B
:10012000A0700000C0700000103A24BF78C878C1E9
:10013000FAD8520724BF30C830C144BF04680C60ED
:10014000704700000023002400250026103A28BF35
:1001500078C1FBD8520728BF30C148BF0B60704739
:10016000662903F04385002070471FB500F039F978
:1001700000F082FB04000020002103F0B9FAE060E7
:100180001FBD10B510BD00F073FC1146FFF7EDFF69
:1001900002F084FC00F091FC03B4FFF7F2FF03BC13
:1001A00002F06CFC0B49D1F800C04A685CF8043BD3
:1001B0001068184442F8040B8C4528BFA1F1DC0CF0
:1001C0008A4228BFA1F1DC02C1F800C04A6020F0D9
:1001D00000407047980900200948804709480047B7
:1001E000FEE7FEE7FEE7FEE7FEE7FEE7FEE7FEE7E7
:1001F000FEE7FEE704480549054A064B7047000044
:1002000009270008ED000008000A00200010002067
:10021000000C0020000C0020704700000FB40449BF
:1002200010B503AA029800F015FB10BC5DF814FB92
:10023000340000200FB41CB5074B06AA7B44694666
:100240000090059800F0EDFA0020694600F0FCFAF5
:100250001CBC5DF814FB00000906000070B50446E4
:1002600085690068C10601D5302600E02026C00758
:1002700007D070BDD4E9012130469047206A401C68
:1002800020626D1EF6D570BD70B504468569007894
:10029000C00707D170BDD4E9012120209047206A12
:1002A000401C20626D1EF6D570BD2DE9F0474FF061
:1002B000000A89460446C0F820A02046E168884725
:1002C000002876D0252806D0D4E901219047206A5D
:1002D000401C2062F1E7E168204600258847C4F809
:1002E0001CA006460027C4F818A02A2E09D03046C4
:1002F00002F0BDFB38B304EB8708303EC8F8186045
:1003000019E059F8041B204604EB87029161E1686B
:100310008847012F064618D1E069002820DA25F029
:1003200020051DE0D8F8180000EB800006EB400027
:100330003038C8F818002046E1688847064602F0C1
:1003400096FB0028EED1012F0AD02E2E08D1204690
:10035000E16888477F1C0646022F45F02005C4DB74
:10036000A069002803DA404245F00105A061E807D2
:1003700001D025F01005B6B1A6F14100192802D828
:10038000203645F400654A463146204625604D46F4
:10039000FFF7E6FE58B1012806D0ED1D25F0070055
:1003A00000F1080989E704E005F1040985E7304612
:1003B0008AE7206ABDE8F0870B4910B5A1F17C02FD
:1003C0000A4CC2E93712372106E000EB104342F82D
:1003D0002130074B00FB03400B1EA1F10101F4DCAF
:1003E00010BD0120E8E7000038090020E119D666B9
:1003F000CD0D0100704770477047704770472DE979
:10040000FF4F0C461E464FF0FF378BB0D2E900017C
:10041000DDF860800A908A46C1F30A5505B93D4669
:10042000002108464FF00000BAF1000F00F4400030
:1004300005DA00EB80004FF4400101EA50004FEA7A
:100440009059B9F1010F00DDB9460A9850EA4A0007
:100450000ED044F61050A5F2FF3545432F14B8F1E5
:10046000000F1ED07542291E1EDDC9F100021CE0DE
:10047000B8F1010F4FF0000001D0302103E0F2434A
:1004800005E02154401CB042FBDB30460022002135
:1004900021540B99C1F80880C1E900200FB0BDE8D4
:1004A000F08FBD1B6D1CDEE74A4600DA694206A8E4
:1004B00000F06CFA06AB93E8070003AB83E8070093
:1004C00050460A9900F042FB8DE80700A0F5005065
:1004D0001F3800900398002D09DD42F21F014A46A3
:1004E000084403A90390684600F0A1FD08E0A0F5C8
:1004F00000504A461F3803A90390684600F0ABFD40
:100500008DE807000004000C03D04FF0FF304108D5
:1005100000E01046B8F1000F03D00022009215460B
:100520001EE0751E05D400F0ABF9303262556D1E29
:10053000F9D5B3460122084302D000227F1C04E013
:100540002078302801D100227F1E002A099786D00A
:100550001DE0112D07DA00F093F9303262556D1C61
:1005600050EA0102F5D1084302D00098C8B10EE06C
:100570000021681E05E0235C625C63542254401E27
:10058000491C8142F7DBAB46A81B401E09900020A6
:1005900004F80B000B98099AC0F80880C0E9002BFA
:1005A0007CE711264FF0000859E72DE9F04F884607
:1005B0000446D21D22F0070191B0D1E90001CDE936
:1005C0000A0102F040FA02460B98C00F01D02D201C
:1005D00007E02068810701D52B2002E0202101EAF5
:1005E000C000032A099001D0072A05DB03464146D3
:1005F000204600F08BF90BE12078800601D5E069F8
:1006000000E00620B8F1650F814606D0B8F1660F0C
:1006100018D0B8F1670F70D131E00020B9F1110F97
:10062000009001DB112301E009F101030AAA01A9ED
:100630000CA8FFF7E4FEDDE90C70002609F10105C6
:10064000834647E001204B4600904FF000470AAA3E
:1006500001A90CA8FFF7D3FEDDE90DB00C995D46AA
:10066000002610B909F101000D18B9EB050003D4FB
:10067000C0F1FF3609F10105A5EB09002BE0B9F146
:10068000010F01DA4FF001090020B9F1110F0090BC
:10069000484601DD112300E003460AAA01A90CA87F
:1006A000FFF7ADFEDDE90C704D460026834620784D
:1006B00000070AD4AB4500DA5D4601A8012D04DD30
:1006C000411911F8011C302907D04F4502DA17F102
:1006D000040F04DA012082460FE06D1EEEE7002FC2
:1006E00002DCED1B3E4403E0781CA84200DD7D1CCB
:1006F000B81B00F1010A4FF000472078000703D42F
:10070000AA4501DB4FF0FF3A0021B7F1004F0DF190
:1007100043088DF8431024D002202B23002F01DA48
:100720007F422D230A21021EA0F1010000DC5FB1EF
:1007300097FBF1FC97FBF1F201FB1C7C17460CF1D7
:10074000300C08F801CDEEE7A8F101000370218814
:10075000090501D5452100E06521A0F1010800F857
:10076000011C09980FA9A1EB0807FF1D00B101208A
:10077000411901EBEA70A1693844081A401EA061D2
:100780002078C00602D42046FFF768FD099828B1FA
:10079000D4E901219047206A401C20622078C006DD
:1007A00022D52046FFF75AFD1EE0002E04DBB3459C
:1007B00002DD01A8805D00E03020D4E901219047EE
:1007C000206A401C2062761CAAF101005FEA000A40
:1007D0000AD100F051F8C0680168405CD4E90121F9
:1007E0009047206A401C2062281EA5F10105DCDC30
:1007F00007E0D4E9012118F8010B9047206A401C5A
:100800002062381EA7F10107F3DC2046FFF73CFD0C
:10081000032011B043E6000001694A1C0261087818
:10082000704700B58FB0CDE9013100210591054930
:100830007944CDE9031011466846FFF736FD0FB045
:1008400000BD0000E5FFFFFF0A6802F8010B0A6027
:1008500070470000074B70B50D467B44FFF7E1FF82
:100860000446284602F00BF910B14FF0FF3070BD7E
:10087000204670BD2722000000487047C0090020B4
:1008800030B5B0F10A024FEA900E71F100034EEA62
:10089000817EB0EB0E0061EB91014FEA101E4EEA33
:1008A000017E10EB0E0041EB11114FEA102E4EEAC3
:1008B000016E10EB0E0041EB11214FEA104E4EEA93
:1008C000014E10EB0E0041EB1141401841F10001C7
:1008D0004FEAD00040EA41704FEAD10110EB8005A9
:1008E0004FEA810444EA907444EB01046D1944EB2F
:1008F0000404521BA3414FF0000348BF0A3200D545
:1009000030BD401C41F1000130BD00002DE9F04137
:100910001F46044603260168072A01F4006004DB31
:1009200008B116A505E016A503E008B115A500E07D
:1009300015A521F010002060A069C01EA0610FB1B4
:10094000401EA0612046FFF789FC4FB1D4E9012188
:1009500038469047206A401C2062C01C206206E096
:10096000206AFAE7D4E9012115F8010B9047761EB9
:10097000F8D22046FFF788FCBDE8F0814E414E00DA
:100980006E616E00494E4600696E66002DE9F047C3
:10099000814616468AB0334878440DC88DE80D006C
:1009A00030487844801C03AC0DC884E80D0041F643
:1009B0009B300844372190FBF1F290FBF1F5A5F153
:1009C000800501FB12041B3C02D56442012000E0BB
:1009D0000020DFF890A080460027FA44AAF1BE0A62
:1009E0000DE0E00709D03246684607EB47010AEB05
:1009F000810100F030FB8DE8070064107F1C002CA3
:100A0000EFD1184F7F44AC3F18E0E80714D007EB54
:100A100004100DF1180A90E80E008AE80E00C06874
:100A2000F04201D198190890324606A903A800F0B7
:100A300012FB03AB83E807006D10641C002DE4D1AA
:100A400032466946B8F1000F03A802D000F0EFFA71
:100A500001E000F000FBC9E90001C9F808200AB074
:100A6000BDE8F0870C68000000487047A00900202E
:100A70007546FFF7F9FFAE4605006946534620F07C
:100A80000700854618B020B5FFF7B4FBBDE820404D
:100A90004FF000064FF000074FF000084FF0000B3A
:100AA00021F00701AC46ACE8C009ACE8C009ACE8ED
:100AB000C009ACE8C0098D46704710B50446AFF3D5
:100AC00000802046BDE81040FFF766BB4FF0013CB8
:100AD00050F8042B51F8043B9A4221D1A2EB0C03AD
:100AE000934313EACC1317D150F8042B51F8043B6D
:100AF0009A4215D1A2EB0C03934313EACC130BD10A
:100B000050F8042B51F8043B9A4209D1A2EB0C0394
:100B1000934313EACC13DBD04FF00000704700BFC3
:100B2000D01A01BAB1FA81F101F0180122FA01F0EC
:100B3000CB40C1F12001DBB2C0B2C01A2CFA01F3E4
:100B4000D11A914311EAC311E6D170475FEA400C14
:100B500008BF91F0000F4FEA8C234FEAC12243EA0D
:100B600051514FEA1C5018BF00F5F0404FEA3000D9
:100B700018BF41F000415FEA6C5C00F02980BCF1D5
:100B8000FF3F08BF40F080407047130C06BF1204BF
:100B90004FF0100C4FF0000C130E04BF12020CF1BA
:100BA000080C130F04BF12010CF1040C930F04BFC7
:100BB00092000CF1020CD30F04BF52000CF1010C97
:100BC00011464FF00002A0F11F00A0EB0C0070478F
:100BD00011F0004F08BF704731F000413FF4D5AF2E
:100BE0000B0C06BF09044FF0100C4FF0000C0B0E5D
:100BF00004BF09020CF1080C0B0F04BF09010CF132
:100C0000040C8B0F04BF89000CF1020CCB0F04BF46
:100C100049000CF1010CCCF12003A0EB0C0022FAEE
:100C200003F302FA0CF241EA030100F101007047FC
:100C300020F07F4C80EA030023F07F47ACEB0703F2
:100C400003F57C5300F0004003F1FF032DE98049D8
:100C50004FEA154B09B44FEA144325EA0B4E24EA38
:100C600003480FF2042606EB132749083E785FEA93
:100C7000320203FB0667C7F5000707FB06F64FEADB
:100C800054374FEAD64606F1020607FB066CCCF154
:100C9000005C4FEA1C472CEA074C07FB06F40CFBF0
:100CA00006F504EB15464FEA961634BF00204FF0C8
:100CB00000404FEAD13706FB07FC4FEA1C4C0CFB07
:100CC0000BF7D21B03FB0CF761EB07010CFB0EF7D4
:100CD000B0EB074072EB17420CFB08F734BFA2EBF6
:100CE0000742B2EB074261EB17414FEA0C444FEA6F
:100CF000910706FB07FC4FEA1C4C0CFB0BF7B0EB13
:100D0000C74072EB573203FB0CF734BFA2EBC7426C
:100D1000B2EBC74261EB57310CFB0EF7B0EBC700EB
:100D200072EB57720CFB08F734BFA2EBC702B2EBB1
:100D3000C70261EB5771039F4FEA816141EA92114B
:100D400004EBCC044FEAD1374FEA826206FB07FC82
:100D500042EA90124FEA80604FEA1C4C0CFB0BF702
:100D6000D21B03FB0CF761EB07010CFB0EF7B0EB9A
:100D7000074072EB17420CFB08F734BFA2EB0742A7
:100D8000B2EB074261EB17414FEA8C554FEA9107EE
:100D900004EB9C2406FB07FC4FEA1C4C0CFB0BF7F6
:100DA000B0EBC74072EB573203FB0CF734BFA2EB3A
:100DB000C742B2EBC74261EB57310CFB0EF7B0EB09
:100DC000C70072EB57720CFB08F734BFA2EBC702E7
:100DD000B2EBC70261EB577115EB4C254FEA81610D
:100DE00041EA92114FEA82624FEAD13742EA901209
:100DF00006FB07FC44F100044FEA80604FEA1C4CFC
:100E00000CFB0BF7D21B03FB0CF761EB07010CFB90
:100E10000EF7B0EB074072EB17420CFB08F734BF3C
:100E2000A2EB0742B2EB074261EB174115EB1C1531
:100E30004FEA813141EA92414FEA823242EA9042DE
:100E40004FEA80304FEA0C7644F1000448EA03434D
:100E50004EEA0B484FF0000EB2EB080C71EB0307A3
:100E600024BF624639464EEB0E0E4FF0000B0018C1
:100E7000524149414BEB0B0BB2EB080C71EB0307F2
:100E80007BF1000B24BF624639464EEB0E0E4FF04D
:100E9000000B0018524149414BEB0B0BB2EB080C15
:100EA00071EB03077BF1000B24BF624639464EEB22
:100EB0000E0E51EA020718BF46F0010616EB0E7639
:100EC00055F1000254F1000103D5BDE88901BDE8E8
:100ED0000088BDE88901BDE80048B619524141EBE0
:100EE0000101A3F10103704780807F7E7D7C7B7AC6
:100EF0007978777676757473727171706F6E6E6DC6
:100F00006C6C6B6A6A69686867666665646463636B
:100F100062616160605F5F5E5E5D5D5C5C5B5B5AF1
:100F20005A5959585857575656555555545453535E
:100F300052525251515050504F4F4F4E4E4D4D4DB9
:100F40004C4C4C4B4B4B4A4A4A4949494848484704
:100F50004747474646464545454444444443434342
:100F60004342424242414141002B26D4770021D0E6
:100F70001CB54FEA370703B44FF010004FF01001D3
:100F80004FF000000FBCBDE810400BF1010BBBF1AE
:100F9000010F08BF5FEA170722BF12F1010211F12A
:100FA00001014FF0004143F1000300F0004043EA2B
:100FB00000007047F9D35708DAE746EA064613F10E
:100FC000400F4FEA16461FDD13F1200FDFBF164317
:100FD0000A46002120335B42C8D0C3F1200746EA0D
:100FE000064602FA07F74FEA164646EA0706C3F135
:100FF000200722FA03F201FA07F721FA03F14FF072
:10100000000342EA0702B1E746EA020646EA06465C
:101010004FEA164646EA0106BCBF46EA0646360CCB
:101020004FF000034FF000024FF000019EE72DE962
:10103000C048934630B491E8380007C831EA400C04
:1010400048BF34EA430C03D5FFF7F2FDFFF78CFFEE
:10105000F0BCBDE800882DE9C048934630B491E863
:10106000380007C810F0804F08BF13F0804F03D13D
:1010700000F005F8FFF778FFF0BCBDE8008820F02D
:101080007F4780EA030023F07F4C07EB0C03A3F5B6
:101090007C5300F00040A3F1FE0392F0000F00F03B
:1010A000B38095F0000F00F077802DE901494FEAF9
:1010B00011404FEA144621EA004800FB06FC24EAEE
:1010C000064708FB06F607FB08F800FB07F718EBD6
:1010D00006484CEB164C4FEA124B18EB07484FEA08
:1010E00015464CEB174022EA0B4E0BFB06FC25EA9B
:1010F00006470EFB06F607FB0EFE0BFB07F71EEB83
:10110000064E4CEB164C4FF000061EEB074E4CEB18
:10111000174B18EB0B0840F1000018EB0E0B58EBC7
:10112000000840F100008F1A4FF000013CBFC94396
:10113000661B14BFB5EB040C00213CBFC943F61B72
:101140004FEA17444EEA8E0E27EA04454FEA1C4741
:1011500004FB07622CEA074C05FB07F70CFB05F6BE
:1011600004FB0CFC16EB074642EB174216EB0C4651
:1011700042EB1C421BEB060658EB0202414146EAD9
:101180009E0601D5BDE80189B619524141EB010126
:10119000A3F10103BDE801894FEA14454FEA114765
:1011A00024EA054621EA074C05FB07F406FB07F78E
:1011B0000CFB06F105FB0CFC11EB074144EB17445B
:1011C0004FEA124711EB0C4144EB1C4422EA074C56
:1011D00005FB07F206FB07F70CFB06F605FB0CFC0C
:1011E00016EB074642EB174216EB0C4642EB1C454A
:1011F0006A1854F1000148BF7047B619524141EBDB
:101200000101A3F10103704795F0000F37D04FEAB9
:1012100011424FEA144721EA024624EA074C02FB36
:1012200007F106FB07F70CFB06F402FB0CFC14EBC2
:10123000074441EB17414FEA154714EB0C4441EBCF
:101240001C4125EA074C02FB07F506FB07F70CFBE0
:1012500006F602FB0CFC16EB074645EB174516EBB2
:101260000C4645EB1C42121951F1000148BF704772
:10127000B619524141EB0101A3F1010370474FEA56
:1012800014454FEA114724EA054621EA074C05FBBD
:1012900007F106FB07F70CFB06F24FF0000605FB13
:1012A0000CFC12EB074241EB174112EB0C4251EBE5
:1012B0001C4148BF7047921841EB0101A3F10103A3
:1012C0007047FEE710B50121042001F055F9012116
:1012D000082001F051F90121102001F04DF9012100
:1012E000084601F049F90121880301F045F901217F
:1012F000880401F033F90121480501F02FF901219B
:10130000880501F02BF90121BDE81040084601F0E5
:1013100017B900002DE9F05F4FF480552C466802A4
:1013200000F0F4F8DFF8A8802A4E002708F104093D
:10133000A0B3DFF89CA0DFF8A0B0AAF1140A641EE5
:1013400005D05946504600F0DAF90028F7D00121BF
:10135000504600F0C8F94FF400346D1E05D0214608
:10136000504600F0CCF90028F7D10021504600F09B
:10137000A2F90021194800F03FF84FF4001000F0E6
:101380002FF8B8F80000B9F80000706838B10020F4
:1013900000F032FE0028FAD1BDE8F09F01E0B7600E
:1013A000FAE7082000F0B2F80028F5D00B4800F06A
:1013B00031F8B8F80000B9F80000706828B10020D2
:1013C00000F01AFE0028FAD1E6E7B760E4E7000073
:1013D0001454004014000020040000106C0002406F
:1013E000C10002D502490860704702494860704751
:1013F0000404024000000240002904D0016841F0CA
:1014000001010160704701684FF6FE7211400160F2
:101410007047000001684FF6FE7211400160002124
:10142000016041608160C1603649364A08399042A6
:1014300004D1486840F00F0048607047314A1432C8
:10144000904204D1486840F0F000486070472D4A4F
:101450002832904204D1486840F470604860704778
:10146000284A3C32904204D1486840F470404860B9
:101470007047244A5032904204D1486840F47020AA
:10148000486070471F4A6432904204D1486840F473
:101490007000486070471B4A7832904204D1486817
:1014A00040F0706048607047174A111F904204D1A5
:1014B000086840F00F0008607047134A14329042E9
:1014C00004D1086840F0F000086070470E4A2832E6
:1014D000904204D1086840F47060086070470A4A7E
:1014E0003C32904204D1086840F470400860704774
:1014F000054A50329042FAD1086840F470200860E2
:101500007047000008000240080402400246002024
:10151000D10002D50449096801E004490968114273
:1015200000D001207047000000040240000002408B
:10153000002A03D002680A430260704702688A43A7
:101540000260704730B5026847F6F0739A430C6A40
:101550008B682343D1E904452C4323438C692343FF
:10156000CC6923434C6A23438C6A234313430360AF
:10157000CA6842600A6882604968C16030BD7047CD
:101580002DE9F0410022CC7804F00F03E40601D5E8
:101590008C7823430C784FF00F0714F0FF0F4FF0B7
:1015A000010C1CD005680CFA02F40E882640A642F5
:1015B00011D1960007FA06F825EA080503FA06F89D
:1015C00048EA0505CE78282E02D0482E02D002E047
:1015D000446100E00461521C082AE4D305600A88D3
:1015E000FF2A1ED94568002202F108060CFA06F40B
:1015F0000E882640A64210D1960007FA06F825EA82
:10160000080503FA06F848EA0505CE78282E00D129
:101610004461CE78482E00D10461521C082AE3D3DD
:101620004560BDE8F0810000F0B5154C002801DAF6
:10163000E36900E06368C0F30346420D120185B21E
:10164000C0F301579540032F07D0C2020CD50322E7
:10165000B240934343F0706209E023F07062636824
:1016600023F07063636002E0AB4343F0706201B14A
:101670002A43002801DAE261F0BD6260F0BD00009B
:1016800000000140FEE7034600209A8A1B8B1B04E2
:101690001A4322F07F42914300D101207047002974
:1016A00004D0018841F0010101807047018821F0D8
:1016B000010101807047002904D0818841F4006154
:1016C00081807047818821F4006181807047002902
:1016D00004D0018841F4807101807047018821F4B1
:1016E000807101807047002904D0018841F40071A5
:1016F00001807047018821F40071018070470CB5AA
:101700000246002000920A0F019221F07F41019AC7
:10171000002A03D0009A1432009203E0090C009AC8
:1017200018320092009A12680A4200D001200CBDC3
:1017300070B586B004460D46A08820F03F0601A88B
:1017400000F028FF03982849B0FBF1F189B20E435D
:10175000A680228822F001022280244B2A689A4225
:1017600009D85200B0FBF2F080B2042800D2042065
:10177000491C218423E0EB88A3F53F46FF3E0BD0B4
:1017800002EBC20303EB0212B0FBF2F080B240F4B2
:101790008040020506D007E002EB4202B0FBF2F007
:1017A00080B2F6E740F0010040F400404FF496723A
:1017B00051434FF47A72B1FBF2F1491C2184A083AA
:1017C000208840F00100208020884FF6F531084045
:1017D000A9886A89114301432180A889298908437E
:1017E000208106B070BD000040420F00A0860100BD
:1017F000002A02D041F0010101E001F0FE01018266
:1018000070470182704738B54FF4A06000F060F86F
:101810000A214FF0FF3000F065F825208DF8000018
:1018200001248DF801408DF802408DF80340684690
:1018300000F01CF827208DF800008DF801408DF88D
:1018400002408DF80340684600F010F810208DF833
:10185000000000208DF801008DF802408DF8034053
:10186000684600F003F838BDFEE7704770B50F23F7
:10187000C27801260178002A1ED0144A126802F4A8
:10188000E062C2F5E062120AC2F10404D340457876
:10189000A54082781A402A43120101F1E02181F823
:1018A0000024007800F01F018E404009800000F104
:1018B000E020C0F8006170BD01F01F0086404809BB
:1018C000800000F1E020C0F8806170BD0CED00E008
:1018D0000249084302490860704700000000FA0509
:1018E0000CED00E00907090E002806DA00F00F00F1
:1018F00000F1E02080F8141D704700F1E02080F82E
:101900000014704718B5012410231CA200212046A2
:10191000009400F017FA102319A200211720009458
:1019200000F010FA102317A200212D20009400F0DF
:1019300009FA102314A200214320009400F002FAB7
:10194000102312A200215920009400F0FBF910236B
:101950000FA200216F20009400F0F4F90020102362
:1019600000900CA21421184600F0ECF90C230DA2F3
:1019700028211020009400F0E5F918BDC9BD000031
:10198000B6AB0000BFC60000BCBC0000B4F3000052
:10199000D1A70000C9BDB6ABBFC6BCBCB4F3D1A7CC
:1019A000000000006769746875623A20636E5A68C7
:1019B0006972616E0000000070B5002500212846A4
:1019C00000F0BEFB0024002000F036FD0028FAD114
:1019D000641CE4B2802CF6D36D1CEDB2082DEDD35F
:1019E00070BD000010B50021074C0022002004EB60
:1019F000C1131A54401CC0B28028FAD3491CC9B282
:101A00000829F3D310BD0000D400002002490120B2
:101A10004860002000F0F0BA1400002010B58CB02F
:101A20000F4801900F4802900020059080210691F8
:101A30000790089009904FF440510A910B901020A4
:101A4000039080010490084C01A92046FFF77AFD1D
:101A500001220A212046FFF76BFD0CB010BD0000EB
:101A600010540040D40000206C0002402DE9F04FDB
:101A70008046099E0C46203A02F0FF090C2B13D039
:101A80000027534807EB091110F801A0002508EBC7
:101A9000070B5FEACA705CD06019C1B20BF0FF009F
:101AA000324600F035F95CE0002709EB4909494866
:101AB00007EB890110F801A0002508EB070B5FEA8E
:101AC000CA7007D06019C1B20BF0FF00324600F0B7
:101AD0001FF907E02EB300226019C1B20BF0FF001E
:101AE00000F016F94FEA5A0A6D1CEDB2082DE6D344
:101AF0007F1CFFB2062FDAD30027364807EB890197
:101B0000084490F806A0082508EB070B5FEACA70A6
:101B100009D06019C1B20BF0FF00324600F0F8F8AE
:101B200009E00122D8E796B100226019C1B20BF09A
:101B3000FF0000F0EDF84FEA5A0A6D1CEDB20C2DD3
:101B4000E4D37F1CFFB2062FD7D3BDE8F08F01226C
:101B5000EBE72EB300226019C1B20BF0FF0000F0DA
:101B6000D7F84FEA5A0A6D1CEDB2082D91D37F1CAD
:101B7000FFB2082F85D30027154807EB0911084449
:101B800090F808A0082508EB070B5FEACA7009D097
:101B90006019C1B20BF0FF00324600F0B9F809E05D
:101BA0000122D8E78EB100226019C1B20BF0FF000C
:101BB00000F0AEF84FEA5A0A6D1CEDB2102DE4D3D6
:101BC0007F1CFFB2082FD7D3BFE70122ECE700004C
:101BD0008B4000080B3C00082DE9F0437F282ED8ED
:101BE00038292CD8CE0801F007010BB9D243D2B264
:101BF00002FA01F5FF2404FA01F3DFF8488005EA50
:101C0000030908EBC61717F800C04CEA090C65EA8F
:101C100003050CEA050C07F800C000290FD0761C5C
:101C2000F3B2C1F10801CA40CC4008EBC31102EA8B
:101C300004030D5C1D4362EA040215400D54BDE827
:101C4000F0830000D40000202DE9F04F0446DDF8B9
:101C500024A089461646DFF8B48009F1080750E051
:101C60007F2C51D8002000EB001118F811309A4257
:101C700005D108EB4101737849788B4203D0401CB1
:101C8000C0B20628EFD3062823D0002500EB0010B1
:101C900008EB400B0BEB0500534682786019C0B28D
:101CA0004946FFF799FF6D1CEDB2102DF2D30025C8
:101CB0000BEB0500F9B2827C6019C0B25346FFF706
:101CC0008BFF6D1CEDB2102DF2D3B61C1034E4B2B4
:101CD00017E0002504EB050B0BF0FF005346002234
:101CE0004946FFF779FFF9B20BF0FF005346002297
:101CF000FFF772FF6D1CEDB2082DEBD3761C083494
:101D0000E4B23278002AABD1BDE8F08F8B460008F0
:101D100010B57F280ED83F290CD801F00704012305
:101D2000A340DBB2064CC90804EBC1111AB10A5C2E
:101D30001A430A5410BD0A5C9A430A5410BD0000AD
:101D4000D40000202DE9FC410446089F0D461646AC
:101D50000C2B14D04FF0000849E0782C02D9002455
:101D60000C35EDB23A2D01D9002425460C23294625
:101D700020460097FFF77AFEA41DE4B2761C327865
:101D8000002AEAD1BDE8FC817F2A1AD9702C02D939
:101D900000241035EDB23A2D01D9002425468DF8E6
:101DA000042070788DF805008DF80680102301AAB4
:101DB000294620460097FFF747FFB61C1034E4B2CF
:101DC00015E0782C02D900241035EDB23A2D01D956
:101DD000002425468DF804208DF80580102329461F
:101DE00020460097FFF742FE761C0834E4B23278B2
:101DF000002AC9D1C6E7000070B506461348144949
:101E00000068B0FBF1F000F00304124D6878A042C6
:101E100002D0FFF7E7FD6C7054B1012C0CD0022CFE
:101E20000ED0032C10D13046BDE8704000F0EAB966
:101E3000BDE8704000F010B8BDE8704000F09AB9FD
:101E4000BDE87040FFF75EBD70BD000038000020A7
:101E500040420F0014000020F8B542484FF47A7158
:101E60000068B0FBF1F06D21B0FBF1F201FB120450
:101E70003D480178A14274D03C4FE1074FF0000586
:101E80004FF0010616D1047024B1381920F8025C15
:101E9000A0F87E5010233522002120460096FFF73F
:101EA000E5FD04F10800C0B21023302200210096A5
:101EB000FFF7DCFD0320B4FBF0F100FB1140C0B9DB
:101EC0003CB1381920F8FD5F8570A0F8805080F88B
:101ED000825010233322194620460096FFF7C6FD94
:101EE00004F108001023C0B2332219460096FFF710
:101EF000BDFDA00715D124B13819C0F8FC51C0F8B8
:101F00007C5210233222202120460096FFF7AEFD9E
:101F100004F10800C0B21023352220210096FFF7FB
:101F2000A5FD0620B4FBF0F100FB1140002818D1FC
:101F300044B13819C0F8FA52A0F8FE52C0F87A53EA
:101F4000A0F87E5310233122302120460096FFF75F
:101F50008DFD0834E0B21023372230210096FFF7C0
:101F600085FDF8BD3800002014000020D4000020BA
:101F700030B585B0C020ADF810001C208DF81300DE
:101F800003208DF8120004A91748FFF7F9FA002082
:101F9000ADF804004FF48060ADF80A000001ADF820
:101FA0000C007820ADF80800104800904BF6FF7048
:101FB000ADF806000E4C69462046FFF7B9FB01213B
:101FC0002046FFF76CFB00240A4D285D00F0B2F9B3
:101FD0000028FAD1641C1B2CF7DBFFF7EDFCFFF7A0
:101FE0001DFD05B030BD0000000C0140801A060048
:101FF00000540040F03B00082DE9F04707464848F0
:10200000484E0468F068201A01F012FD02460B46A3
:102010000020454901F0B4FB01F080FB3061F46021
:10202000B02000F087F90028FAD1002000F082F9F2
:102030000028FAD1102000F07DF90028FAD1FFF72E
:10204000EDFC4FF480594C464FF0FF384FF4003A06
:10205000364D01E0641E0ED051462846FFF74FFB77
:102060000028F7D12C4601212046FFF730FB4D46D2
:10207000DFF8BCA004E04046BDE8F0876D1E0ED03E
:1020800051462046FFF7FFFA0028F7D000227821BA
:102090002046FFF7ADFB4D46DFF898A003E0404631
:1020A000EAE76D1E12D051462046FFF7ECFA0028F1
:1020B000F7D0254640212846FFF7A3FB4C46DFF822
:1020C00078A0DFF87490AAF17C0A03E04046D3E7D9
:1020D000641E05D049462846FFF711FB10B107E002
:1020E0004046C9E751462846FFF709FB0028EFD0D4
:1020F0000120B06001212846FFF7DDFA01210F48D9
:10210000FFF77AF93FB14FF42040B16801E0401E7B
:1021100003D00029FBD10020AEE74046ACE7000029
:102120003800002014000020006AF84000540040ED
:102130000100030082000700800000106C000240D4
:1021400070B50D4600F1B004E0B200F0F3F80028DD
:10215000FAD1102040EA1514204600F0EBF80028D0
:10216000FAD105F00F04204600F0E4F80028FAD177
:1021700070BD000030B587B01C4844F6206100688F
:10218000B0FBF1F201FB1200002811D118480069E0
:1021900001F0B6FC02460B4616A102A8FEF74AF86B
:1021A000012000210090102302AA0846FFF7CAFD73
:1021B000FDF7F8FFC11700EB516121F07F01451ACF
:1021C000FDF7F0FF302190FBF1F201FB1204103417
:1021D000FDF7E8FF00EBD07121F00101401AC2B217
:1021E000E1B2E8B2FFF794FD07B030BD380000203F
:1021F00014000020726174653A25382E32666670CC
:102200007300000010B504460121204600F066FD71
:102210000021204600F05FFD2749204600F04BFDDD
:1022200026A314220021204600F020FD0121204693
:1022300000F051FD2249204600F03DFD21A3082277
:102240001521204600F012FD0021204600F043FD3C
:102250001949204600F02FFD1BA31E2233212046E2
:1022600000F004FD19A31E224321204600F0FEFCCD
:102270002F2323220221204600F09AFC2F23242220
:102280000321204600F094FC0C2320222D2120461F
:1022900000F0F4FC0C2321222E21204600F0EEFC5D
:1022A0000B49204600F007FD20463622BDE81040CD
:1022B00008A3012100F0DABC2A4A000855000000FA
:1022C000A26C00083800000067000000B2000000A7
:1022D000574700086769746875622E636F6D2F6FCA
:1022E0006C696B726175732F75386732000000007E
:1022F00038B50B4C0B480090034602460A49A4F13E
:10230000940001F08EF809480090094B08222146FC
:10231000A4F1940000F0F8FCA4F1940038BD000092
:10232000D4000020E5360008B1350008C86F000869
:10233000613200082DE9F04781464FF48058454648
:102340004FF0FF374FF40036384C01E06D1E0DD0D2
:1023500031462046FFF7D3F90028F7D10121204666
:10236000FFF7B5F94546DFF8C8A004E03846BDE8F8
:10237000F0876D1E0FD051462046FFF784F90028E4
:10238000F7D02546002278212846FFF731FA444647
:10239000DFF8A0A003E03846E9E7641E10D05146FC
:1023A0002846FFF770F90028F7D02C460021204678
:1023B000FFF727FA4546DFF87CA00AF1020A03E09E
:1023C0003846D4E76D1E0BD051462046FFF75BF927
:1023D0000028F7D049462046FFF713FA454603E0A8
:1023E0003846C4E76D1E0CD051462046FFF74BF926
:1023F0000028F7D0254601212846FFF774F9444606
:1024000003E03846B3E7641E0DD031462846FFF797
:1024100076F90028F7D105481430008803481830B1
:1024200000880020A3E73846A1E7000000540040E0
:1024300001000300820007002DE9F04781464FF4B8
:10244000805845464FF0FF374FF40036384C01E0D6
:102450006D1E0DD031462046FFF751F90028F7D107
:1024600001212046FFF733F94546DFF8C8A004E014
:102470003846BDE8F0876D1E0FD051462046FFF765
:1024800002F90028F7D02546002278212846FFF7D8
:10249000AFF94446DFF8A0A003E03846E9E7641E40
:1024A00010D051462846FFF7EEF80028F7D02C460A
:1024B00040212046FFF7A5F94546DFF87CA00AF148
:1024C000020A03E03846D4E76D1E0BD05146204681
:1024D000FFF7D9F80028F7D049462046FFF791F9D1
:1024E000454603E03846C4E76D1E0CD051462046F1
:1024F000FFF7C9F80028F7D0254601212846FFF745
:10250000F2F8444603E03846B3E7641E0DD0314686
:102510002846FFF7F4F80028F7D105481430008862
:102520000348183000880020A3E73846A1E70000E0
:1025300000540040010003008200070070470000C3
:10254000054A002903D0516901435161704751691F
:10255000814351617047000000100240054A002984
:1025600003D0D1690143D1617047D1698143D16101
:102570007047000000100240054A002903D091690D
:1025800001439161704791698143916170470000F7
:102590000010024010B5264A516801F00C01254B8D
:1025A000002927D0042927D0082927D003605168A3
:1025B00001F0F0010909204B5C5C0168E1404160D9
:1025C000546804F4E064240A1C5D21FA04F4846075
:1025D000546804F46054E40A1B5DD940C160526839
:1025E00002F44042920B144B1B1F9A5CB1FBF2F1B8
:1025F000016110BD0360DAE70360D8E7516801F4B8
:102600007011536803F48033022404EB914133B119
:1026100053689B0307D5094B59430160C7E7074B34
:1026200059430160C3E7034B59430160BFE7000012
:102630000010024000127A000400002000093D0052
:10264000704700F001B800000CB500220192009222
:102650002748016841F4803101604FF4A0630168AC
:1026600001F4003100910199491C0191009911B9BF
:1026700001999942F3D10168890302D501210091A2
:1026800000E000920099012930D11A490A6842F00D
:1026900010020A600A6822F003020A600A6842F027
:1026A00002020A604168416041684160416841F44A
:1026B00080614160416821F47C114160416841F4CE
:1026C000E8114160016841F0807101600168890191
:1026D000FCD5416821F003014160416841F00201ED
:1026E00041604168C1F381010229FAD10CBD0000AB
:1026F000001002400020024002480168491C0160AD
:10270000704700003800002010B50F48016841F004
:102710000101016041680D4A1140416001680C4AA5
:1027200011400160016821F480210160416821F4B9
:10273000FE0141604FF41F018160FFF782FF0549F0
:102740004FF00060086010BD001002400000FFF86C
:10275000FFFFF6FE08ED00E030B585B004464FF40B
:102760000070ADF8100003208DF8120018208DF8CD
:102770001300164D04A92846FEF702FF2815ADF8F0
:10278000100004208DF8130004A92846FEF7F8FE77
:1027900000940020ADF80400ADF80600ADF8080084
:1027A000ADF80C000C20ADF80A00094C6946204633
:1027B00000F0E6F8012240F22551204600F0C4F86E
:1027C0000121204600F094F805B030BD000801401A
:1027D0000038014030B585B004464FF48060ADF854
:1027E000100003208DF8120018208DF81300164DEC
:1027F00004A92846FEF7C4FEE814ADF81000042032
:102800008DF8130004A92846FEF7BAFE00940020B4
:10281000ADF80400ADF80600ADF80800ADF80C0006
:102820000C20ADF80A00094C6946204600F0A8F8D3
:10283000012240F22551204600F086F80121204671
:1028400000F056F805B030BD000C014000480040D3
:1028500070B50E4C40F225552946204600F054F83C
:10286000002811D02946204600F03AF8204600F012
:10287000E5F8074B074C1A68511C1960A054B1F5D4
:10288000FA7F01D30020186070BD000000380140BD
:1028900028000020D404002070B50E4C40F22555CD
:1028A0002946204600F030F8002811D0294620465D
:1028B00000F016F8204600F0C1F8074B074C5A68A4
:1028C000511C5960A054B1F5FA7F01D30020586023
:1028D00070BD00000048004028000020C80600200D
:1028E00040F66A120A0A01219140C94301807047EB
:1028F000002904D0818941F4005181817047818988
:1029000021F400518181704770B5002440F66A12AD
:10291000C1F3421301F01F05012606FA05F2012B4F
:102920000CD0022B0DD0838A1340090A8E400088F8
:1029300030400BB100B10124204670BD83891340A3
:10294000F3E7038A1340F0E710B540F66A13C1F3CA
:10295000421301F01F040121A140012B07D0022BDB
:1029600007D014303AB102680A43026010BD0C303F
:10297000F8E71030F6E702688A43026010BD0000F5
:1029800030B585B004460D46208A4CF6FF710840EC
:10299000E98801432182A0894EF6F3110840A988F5
:1029A0002A8911436A8902431143A181A08A4FF603
:1029B000FF410840A9890143A1826846FFF7EAFD6B
:1029C0001D48844201D1039800E00298A1890904BE
:1029D00008D500EBC00101EB001029684900B0FBED
:1029E000F1F007E000EBC00101EB0010296889005D
:1029F000B0FBF1F06422B0FBF2F109010B096FF0BA
:102A000018056B4300EB8300A3891D044FF03203CC
:102A100007D503EBC000B0FBF2F000F0070008435D
:102A200006E003EB0010B0FBF2F000F00F000843EB
:102A3000208105B030BD0000003801408088C0F31F
:102A400008007047FEE7490050EAC12018BF042083
:102A50004A0D18BF40F0010040F2FF72B2EB515F27
:102A600008BF40F00200012808BF05207047303839
:102A70000A2801D20120704700207047FEE74FF07E
:102A8000FF30704704490A885206FCD5024AC1B299
:102A9000121D11807047000000380140FEF712FC43
:102AA00001211F48FEF7C0FD4FF0E02440F2CF2087
:102AB00060610F216017FEF715FF0020A06107205D
:102AC00020614FF4E1342046FFF746FE2046FFF731
:102AD00081FEFFF74DFAFEF796FEFEF797FF0028FE
:102AE000FBD1FFF705FC07460EA0FDF797FB114948
:102AF00001200860104D114C114E2868B0FBF4F114
:102B000004FB110038B9306800F0FAFF02460B46AA
:102B10000CA0FDF783FB3846FFF76EF9EDE70000E8
:102B200000023000696E69745F616C72656164797E
:102B30000A0000003C0000203800002040420F0046
:102B4000240000204650533A252E32660A00000029
:102B50002DE9F04104460D4616461F4694F87000D4
:102B6000002806D001280AD002280ED0032817D149
:102B700011E0E16D20468847304486B210E0E16DF7
:102B800020468847281A85B20AE0E16D204688472A
:102B9000301A86B204E0E16D20468847284485B2A9
:102BA0003B46324629462046BDE8F04100F0CCBA0B
:102BB00038B50024009400F001F838BD3FB581B06D
:102BC0000446089994F88C00002837D0BDF810000E
:102BD000002833D001280FD9022902D0032906D0BA
:102BE0000AE0BDF80820101A401C029004E0BDF86D
:102BF0000C20101A401C039001F0010505B3B4F835
:102C00004810BDF80800814218D8B4F84A10814233
:102C100014D9B4F84E30B4F84C2004A903A800F03D
:102C20001AF900280AD00095206BBDF81030BDF8C5
:102C30000C208568BDF808102046A84705B030BDB7
:102C4000B4F84C10BDF80C008142F7D8B4F84E101F
:102C50008142F3D9B4F84A30B4F8482004A902A854
:102C600000F0F9F80028DED1E8E7000030B4024CAB
:102C7000446030BC00F01EB98134000838B501242E
:102C80000094FFF79BFF38BD70B51E46049B0446B9
:102C90000D46B4F84E10B4F84C0000F0CBFA40B139
:102CA00048343346618820882A46BDE8704000F0E9
:102CB000C1BA002070BD10B50446A06D884209D08D
:102CC000A16504F1740000F013FB2046BDE810403C
:102CD00000F03DB810BD80F87010704780F86D109E
:102CE000704700000149C16570470000272F0008A8
:102CF00000213030018481844FF6FF714184C1840A
:102D000050F830194968084770B504460498002502
:102D1000A565E362616384F8382084F8395084F84B
:102D20006D5084F8915084F88D50012184F89210F0
:102D300084F8931020630168204688472046FFF7F7
:102D4000D7FF2046FFF7CEFF84F8705070BD10B556
:102D5000816D002918D010F9811F417390F901206D
:102D60008273037B8138002B0ED0012B0DD090F99C
:102D70007E4090F980301C448C4201DD80F88E400A
:102D80009A4201DD80F88F3010BD90F9833099426E
:102D900001DA80F88E3090F984108A42F4DD80F8F0
:102DA0008F1010BD002B06D0012B07D0022B08D0AE
:102DB000104480B27047084480B27047801A80B2D5
:102DC0007047401A80B27047002B06D0012B07D005
:102DD000022B08D0401A80B27047104480B270476E
:102DE000084480B27047801A80B2704738B50446F4
:102DF0005034E08800906388A28834F85019204647
:102E0000FFF742FF18B3012084F88C00B4F8481093
:102E1000B4F85000814201D2A4F84800B4F84A1036
:102E2000B4F85200814201D9A4F84A00B4F84C1019
:102E3000B4F85400814201D2A4F84C00B4F84E100A
:102E4000B4F85600814201D9A4F84E0038BD0020E4
:102E500084F88C0038BD30B504880D882544ADB2A7
:102E6000AC4205D99C4202D25D1EADB200E01446D0
:102E70009C4201D3002030BD954201D8002030BDD6
:102E8000944200D214469D4200D91D460480281B5E
:102E90000880012030BD38B5049CC58F521B92B20A
:102EA0000094C46AA04738BD38B5049C0094FFF76D
:102EB000F2FF38BD2DE9F04780460C4615461E4608
:102EC000404600F011FC00274FF6FF79D8F80420A7
:102ED00031784046904703464B4502D13846BDE81D
:102EE000F087761CA3F57F40FE38EFD02A462146B6
:102EF0004046FFF72DFE98F8703033B1012B07D014
:102F0000022B08D0032B0BD108E021188CB207E06C
:102F100029188DB204E0211A8CB201E0291A8DB271
:102F2000384487B2D2E70020704710B50C462146DE
:102F300000F006F80122641EA240801A40B210BDC3
:102F400030B5047B05682B78E3406218D2B2082ABA
:102F500009D3C4F108046D1C05602D78A5401D43FC
:102F6000EBB2083AD2B201248C40641E1C400273BA
:102F7000204630BD2DE9F843054605F1600428469A
:102F800000F03EF915F96B6F2046E97BFFF7CDFFA6
:102F90008146297C2046FFF7C8FF8046697C6B3D4F
:102FA0002046FFF7C2FF074694F90A00002878DDA3
:102FB00006EB0800404242B2237C9046A088494676
:102FC000FFF7F0FEA080237C4246E0884946FFF7E9
:102FD000FBFEE080A18802460B46104694F810C024
:102FE000BCF1000F09D0BCF1010F0DD0BCF1020FF4
:102FF00014D0BCF1030F29D11EE094F90AC0634438
:103000009BB2304480B221E0891B491C89B25B1C11
:103010009BB294F90AC0604480B217E094F90AC0E8
:10302000A1EB0C01491C89B25B1C9BB2921B521C88
:1030300092B2401C80B209E033449BB294F90AC0BA
:10304000A2EB0C02521C92B2401C80B200902846A7
:10305000FFF71AFE40B300202072607295F87610D8
:103060002046FFF76DFF804695F877102046FFF762
:1030700067FF814600224146284600F017F80122EA
:103080004946284600F012F801212046FFF758FF74
:103090000028EFD194F90900B042DFDBA07B85F86E
:1030A00092003846BDE8F8833846FBE72DE9F74F34
:1030B00084B081460D4609F1600494F80880677A6F
:1030C000A07AA0EB0800C6B2B246B54200D2AA462A
:1030D000A088E1880191237C7AB24FFA88F1934667
:1030E0000391FFF75FFE0290237C5A4603990198F3
:1030F000FFF76AFE0246069850B1A07B89F892005D
:10310000207C0090534648460299FFF757FD0BE09C
:10311000607B48B9E07B89F89200207C00905346A0
:1031200048460299FFF74AFDB54206D208EB050072
:103130002072677207B0BDE8F08FA81BC5B24FF0D0
:1031400000087F1CFFB2BBE770B504460025A4F859
:103150006410A4F866201946204600F00BF80146DA
:1031600019B12046FFF706FF85B2284670BD084416
:103170000078704770B502460D46906D1730FF2DF0
:1031800013D8612D03D3B2F88810084404E0412D10
:1031900002D3B2F886100844417829B30278AA42D3
:1031A00001D1801C70BD0844F6E7B2F88A100C18F3
:1031B00026460021304600F019F80444022130462A
:1031C00000F014F8361DA842F3D34FF6FF722078B2
:1031D00002EA00216078084330B1A84201D1E01C26
:1031E00070BDA0780444F2E7002070BD0844017867
:1031F0004FF6FF7202EA01214078084480B270471E
:1032000030B5054605F1600421600020207315F8F3
:10321000781F2046FFF794FEA07269782046FFF7DA
:103220008FFEE072A87EA07310B10020E07330BD65
:103230000120FBE78A4209D2834201D9012070476D
:103240009A4201D90120704700207047834205D976
:103250009A4201D901207047002070470020704732
:103260002DE9F041DDF818C002F007060124B44052
:10327000E7B20024002590F89280B8F1010F00D841
:103280003C4600D03D4622F0070207683F7C07FB22
:1032900002F7BAB2476B3A441144BCF1000F0AD1AD
:1032A00008782043684001F8010B5B1E9BB2002B9D
:1032B000F6D1BDE8F0810A7822436A400A70761C94
:1032C00006F007065B1E9BB236B16206140E6A0654
:1032D000150E002BEFD1ECE7428F114490F89220AD
:1032E000012A01D84FF00104F3D04FF00105F0E7B7
:1032F00070B504460D4600212846FFF738FF2070C0
:1033000001212846FFF733FF607002212846FFF7AE
:103310002EFFA07003212846FFF729FFE07004214B
:103320002846FFF724FF207105212846FFF71FFFDD
:10333000607106212846FFF71AFFA0710721284671
:10334000FFF715FFE07108212846FFF710FF2072F4
:1033500009212846FFF70BFF60720A212846FFF774
:1033600006FFA0720B212846FFF701FFE0720C2137
:103370002846FFF7FCFE20730D212846FFF7F7FED5
:1033800060730E212846FFF7F2FEA0730F21284636
:10339000FFF7EDFEE07310212846FFF7E8FE2074EA
:1033A00011212846FFF722FF608213212846FFF7EC
:1033B0001DFFA08215212846FFF718FFE08270BD8F
:1033C000F0B5016890F838204FF6FF7606EAC203A0
:1033D00083870B7C06EAC303438790F8393006EAFB
:1033E000C304C4874D7C9F18AF4201D9EA1A92B238
:1033F00006EAC20220F8404F224442808A8A828034
:10340000C98AC180F0BDFFF7DBBF002140300181D8
:1034100081884181018881814188C1814038FFF7DD
:10342000E5BC2DE9F0410446069F0D4616462046B0
:1034300000F00AF8A560E660236167612046BDE8F8
:10344000F04100F015B800000021083040F8081CD9
:10345000064A026042608260C260C1768177016183
:10346000FF21017780F8201070470000D536000852
:1034700030B484680023A44630BC1A460921604752
:103480000846002801D00A2801D14FF6FF70704786
:1034900030B4C4680023A44630BC1A4619216047E2
:1034A00030B4C4680023A4460A4630BC16216047E5
:1034B00030B4C4680023A4460A4630BC15216047D6
:1034C00030B4C4681346A4460A4630BC172160478E
:1034D000F8B505460C4614F8011B182923D00EDC5C
:1034E000152918D0162916D0172922D12078009036
:1034F0006A4601212846FFF7E3FF641CEBE7192920
:1035000011D0FE2915D1227800922921284600F0F9
:10351000E3F8641CDFE722780092EE680023284677
:10352000B047641CD7E70023EE681A462846B04728
:10353000D1E7F8BD30B4C4680023A44630BC1A46B5
:103540001821604770B50446002365691A46282192
:103550002046A8470023E5681A4614212046A847BC
:1035600001224B21204600F0B7F82068292102797A
:10357000204600F0B1F800224B21204600F0ACF8C4
:10358000206829210279204600F0A6F801224B216B
:10359000204600F0A1F82068292142792046BDE8A4
:1035A000704000F099B80160897C80F82210704763
:1035B00070B505460C462146284600F01BF808B1B8
:1035C000012070BD092C0BD00A2C01D0002070BD49
:1035D0002846FFF7B7FF05492846FFF779FF03E0C4
:1035E00003492846FFF7DFFF012070BDFA6F00088E
:1035F000FC7000082DE9F041054614461E460B29D3
:1036000008D00D2912D00E2925D00F2932D0002044
:10361000BDE8F08124B12E492846FFF759FF55E057
:103620002B492846491FFFF753FF4FE04CB128496B
:1036300028460C31FFF74CFF2868C07C85F8220033
:1036400044E023492846491DFFF742FF2868807C53
:1036500085F822003AE02846FFF76CFF81212846D2
:10366000FFF726FF21462846FFF71AFF2846FFF7F7
:103670000FFF2BE02846FFF75DFF7079C00095F83B
:1036800022100844C7B240212846FFF711FF10203E
:1036900040EA17112846FFF70BFF07F00F012846F5
:1036A000FFF7FEFEB07940F0B0012846FFF7F8FEC4
:1036B00030793268C006010E2846FFF701FF641E0C
:1036C000E4B2002CF4D12846FFF7E2FE01209FE788
:1036D000D96F00080020704730B444690023A44625
:1036E00030BC604700207047002180F826107047EA
:1036F00010B500290AD00878002807D0054878447A
:10370000FDF7E4F9002801D0002010BD02487844FC
:1037100010BD0000E23A0000DA3A000021F0004259
:10372000A2F16052B2F5801F01F0004328BFD2F130
:103730007F6C0BD95FEA001C43EAC20242EB507077
:1037400018BF704728BF20F001007047B2F5801FF6
:10375000BCBF184670474FEA410C1CF5001F02D24F
:10376000084600F03EBA70B500F075F90000008917
:10377000FFF7F6BF4FF00040A0F580007047000053
:103780002DE9C04130B4DFF8A0C23CEA111418BFE3
:103790003CEA131400F0EC8081EA03051CEA1114E2
:1037A00044EAD57418BF1CEA131500F0C780A4EBD7
:1037B00005044FF0004545EAC12145EAC32341EA2B
:1037C000505143EA525304F17F74994204F5003496
:1037D0004FEAC0204FEAC22208BF904200F09C800E
:1037E0004FEA13650FF24016765D4FEA134506FB6C
:1037F00005F7C7F1807706FB07F74FEAD737A7FB36
:1038000003687642C8F58038A7FB06CE38BFA8F11A
:10381000010807FB08E64FF0000EA6FB028CE6FB52
:1038200003CEDCF1000CCEF1004E38BFAEF1010E3C
:10383000A6FB0C584FF000074FF00005E6FB0E8783
:10384000A1FB08C6A0FB07CE16EB0E0645F100054E
:10385000E1FB076515F1E04E7EBFA4F580345FEA19
:1038600046066D4116F1800745F100054FEA17271E
:103870004FEA066647EA0567A6F1DE46B6F1805FC5
:103880004FEA15251FD9384624F0010C05EBC47109
:10389000BCF1FE6F01EB0C1102D8F0BCBDE8008159
:1038A00024425CBF01F5801E9EEAC47F02D4F0BCB6
:1038B000BDE80081244238D4F0BCA1F1C041BDE88C
:1038C000004100F016B94FEAD22242EA43524FEAD1
:1038D000D323A7FB02864FEAD02040EA415007FBE2
:1038E00003661EEA0E0F4FEAD12105FB026658BFA0
:1038F000A6EB0056B6EB00564FEA520E4EEAC37ED8
:1039000018EB0E0E56EB530EBDD518EB02085E41B8
:103910007F1C55F10005B6E74FF480154FF0000706
:103920004FF000064FF00008ADE7F0BC4FF000008C
:1039300001F1C04101F00041BDE8008111EA0C1F16
:103940000CEA131500D00CE013EA0C1F00F02580E0
:103950004FF00000F0BC81EA030101F00041BDE836
:103960000081F0BCBDE8004181EA030100F0C1B86C
:10397000F0BCBDE8004170B500F06DF8097EFC3E7A
:1039800000F007B881EA03014FF0000001F00041A8
:10399000704781EA030100F0ACB8F0BCBDE800411B
:1039A0004FF0000021497047FFFDFBF9F7F5F4F2F5
:1039B000F0EEEDEBE9E8E6E4E3E1E0DEDDDBDAD8CA
:1039C000D7D5D4D3D1D0CFCDCCCBCAC8C7C6C5C428
:1039D000C2C1C0BFBEBDBCBBBAB9B8B7B6B5B4B33F
:1039E000B2B1B0AFAEADACABAAA9A8A8A7A6A5A42A
:1039F000A3A3A2A1A09F9F9E9D9C9C9B9A999998EE
:103A00009797969595949393929191908F8F8E8E90
:103A10008D8C8C8B8B8A898988888787868585841D
:103A200084838382828181800000FF070000F87F09
:103A3000B0FA80F310FA03F10AD0C3F11D0303F5C5
:103A400080634FEA41504FEA035202EBD1217047A5
:103A50004FF0000070470EF1020E2EF0030E5EF8DC
:103A6000046B364205D4012A43EB030515F5001F0C
:103A700012D8012841EB010C1CF5001F0CD80ED107
:103A80004FEAD17C15F5001F0CEB4C0C0CF1020C2D
:103A900008BF4CEBD37C04E04FF0080C01E04FEA88
:103AA000D37C0CEB4C0526FA05F606F00706B6F1BA
:103AB000040C06D20EEB860CBDE870404CF0010CF5
:103AC0006047DFE80CF0090B02024FF000414FF0B5
:103AD0000000A1F5002170BD19461046012851EBE8
:103AE000010418BFD4F5001484BF002001F0004188
:103AF00070BD0808A0F500114FEA310170470000C1
:103B000043004FEAD30C4FEA3C0C43401FBF400731
:103B10000CF1605113F0FE4F70471CF0006F03D1A1
:103B200000200CF0004170470CF0004343EA507055
:103B300010B540EACC0000F00EF800BF0000009283
:103B40004FEA0001FFF7D5BF4FF000414FF00000F2
:103B5000A1F5002170470EF1020E2EF0030E5EF863
:103B6000044B244204D44FEA4102B2F17F4F11D8F2
:103B70004FEA4003B3F17F4F0CD80ED14FEAD07C0F
:103B8000B2F17F4F0CEB4C0C0CF1020C08BF4CEB6C
:103B9000D17C04E04FF0080C01E04FEAD17C0CEB43
:103BA0004C0324FA03F404F00704B4F1040C06D225
:103BB0000EEB840CBDE810404CF0010C6047DFE8D0
:103BC0000CF0070802024FF00040A0F5800010BD85
:103BD0000846420018BFD2F1807288BF00F0004052
:103BE00010BDFF2141EAD050C0057047FCF7DDBC95
:103BF000AED580A83FD300408D142000A1C8DA12B2
:103C000081EFD9F1DB30A4A6AF0000000000000076
:103C1000000000000000000000003E000000000066
:103C2000010000000E02000E020000000000000073
:103C300050F856F85600030003000000D8A4A6640C
:103C40000000000003000000242AA450900000009F
:103C500000010000C0304888400000010100010060
:103C600000001E0000000000000000000000F80638
:103C700000000000010600000006F8000000000639
:103C80000100000004340E34040000000000002095
:103C90002020FC20200000000100000000008080A7
:103CA000000000060300000020202020200000006B
:103CB0000000000000808000000000010100000002
:103CC000008060180600020100000000FC020202F1
:103CD000FC000001010100000002FE0000000101E3
:103CE00001010100844222128C0001010101010046
:103CF00084021212EC0000010101000060504C42ED
:103D0000FE00000000010100801E1212E20000010E
:103D100001010000F8141212E2000001010100008C
:103D2000060282720E00000001000000EC12121266
:103D3000EC000001010100001C2222A27C00010114
:103D40000100000000989800000000010100000040
:103D500000009898000000030100002050508804E3
:103D600004000000000101005050505050000000BD
:103D700000000004048850502001010000000000F1
:103D8000000844241800000101000000FE01314930
:103D90007E00010202020100C07A4678C0010101E2
:103DA00000010102FE121212EC01010101010000EA
:103DB000FC0202028600000101010002FE020284F0
:103DC0007801010101000002FE123A0286010101A0
:103DD0000101010002FE123A02000101010000008F
:103DE000FC020222E600000101010002FE12101294
:103DF000FE010101000101000202FE0202000101B8
:103E000001010100E00202FE0200000101000002C7
:103E1000FE22304A860101010000010002FE02007C
:103E2000C000010101010102FE0E300EFE01010180
:103E300000010102FE0E7082FE010101000101007D
:103E4000FC020202FC0000010101000002FE22222D
:103E50001C00010101000000FC020202FC00000144
:103E600003030202FE2222629C0101010000000005
:103E70008C921214E6000100010100060202FE020B
:103E80000200000101010002FE020002FE0000012A
:103E9000010100020E7280720E000000010000029B
:103EA000FE02F002FE0000010001000286483048D8
:103EB0008601010000000102061AE01A0600000156
:103EC000010100008642320A860001010101010061
:103ED00000FE02020000000704040000021C6080D3
:103EE0000000000000030000000202FE00000004C9
:103EF0000407000010080608100000000000000081
:103F0000000000000008080808080800000002047B
:103F10000000000000000000D0282828F000000168
:103F200001010102FE100808F00101010101000079
:103F3000F00808089800000101010000F0080812CC
:103F4000FE00000101010100F028282830000001D6
:103F50000101010008FC0A0A0A0001010101010037
:103F6000F0080810F800000505050302FE10080817
:103F7000F0010101000101000808FA000000010140
:103F80000101010008080AF800000404040300020B
:103F9000FE20689808010100010101000002FE00F6
:103FA0000000010101010108F808F008F001010119
:103FB00001010108F8100808F001010100010100E9
:103FC000F0080808F000000101010008F8100808D6
:103FD000F004070501010000F0080810F8000001D6
:103FE0000105070008F8100808000101010101009F
:103FF00090282828D80001010101000008FC0808C9
:104000000800000001010108F8000088F800000124
:104010000100010838C800C838000000010000088D
:10402000F808E008F80000010001000898606098B6
:104030000801010000010108186880C83800040464
:1040400007040000984828188800010101010100B8
:104050000040BC0200000000030400000000FE005D
:1040600000000000030000000002BC40000000044B
:10407000030000004020404020000000000000003D
:104080000000000000000000000000000000000030
:104090000000000000000000000000000038FCFCF0
:1040A0003800000000000D0D000000000E1E000092
:1040B0001E0E00000000000000000020F8F820F8AC
:1040C000F82000020F0F020F0F0200387C44474710
:1040D000CC98000306041C1C07030030300080C08D
:1040E0006030000C060301000C0C0080D87CE4BC9E
:1040F000D84000070F0808070F080000101E0E0028
:1041000000000000000000000000000000F0F80CBB
:10411000040000000003070C0800000000040CF875
:10412000F000000000080C0703000080A0E0C0C001
:10413000E0A0800002030101030200008080E0E0B3
:104140008080000000000303000000000000000069
:104150000000000000101E0E0000008080808080A3
:10416000808000000000000000000000000000004F
:104170000000000000000C0C00000000000080C0E7
:104180006030000C06030100000000F8FC04C424A9
:10419000FCF800070F0908080F0700001018FCFCC6
:1041A0000000000008080F0F080800080C84C46411
:1041B0003C18000E0F0908080C0C00080C4444447D
:1041C000FCB800040C0808080F0700C0E0B098FC19
:1041D000FC8000000000080F0F08007C7C4444C4F1
:1041E000C48400040C0808080F0700F0F84C44448D
:1041F000C08000070F0808080F07000C0C0484C4D7
:104200007C3C0000000F0F00000000B8FC44444458
:10421000FCB800070F0808080F0700387C44444426
:10422000FCF800000808080C07030000000030300C
:104230000000000000000606000000000000303012
:104240000000000000080E060000000080C0603082
:1042500018080000000103060C08004040404040E0
:104260004040000202020202020200000818306010
:10427000C0800000080C0603010000181C04C4E400
:104280003C18000000000D0D000000F0F808C8C840
:10429000F8F000070F080B0B0B0100E0F0988C986A
:1042A000F0E0000F0F0000000F0F0004FCFC44447E
:1042B000FCB800080F0F08080F0700F0F80C040402
:1042C0000C180003070C08080C060004FCFC040C86
:1042D000F8F000080F0F080C07030004FCFC44E48E
:1042E0000C1C00080F0F08080C0E0004FCFC44E432
:1042F0000C1C00080F0F0800000000F0F80C84846C
:104300008C980003070C0808070F00FCFC40404095
:10431000FCFC000F0F0000000F0F00000004FCFC6D
:104320000400000000080F0F08000000000004FC5B
:10433000FC0400070F08080F07000004FCFCC0F095
:104340003C0C00080F0F00010F0E0004FCFC0400E1
:10435000000000080F0F08080C0E00FCFC38703835
:10436000FCFC000F0F0000000F0F00FCFC3870E099
:10437000FCFC000F0F0000000F0F00F0F80C040C05
:10438000F8F00003070C080C07030004FCFC44448D
:104390007C3800080F0F0800000000F8FC0404043B
:1043A000FCF800070F080E3C3F270004FCFC44C447
:1043B000FC3800080F0F00000F0F00183C6444C4C5
:1043C0009C1800060E0808080F0700001C0CFCFCD7
:1043D0000C1C000000080F0F080000FCFC0000008F
:1043E000FCFC00070F0808080F0700FCFC00000099
:1043F000FCFC000103060C06030100FCFC0080002D
:10440000FCFC00030F0E030E0F03000C3CF0C0F089
:104410003C0C000C0F0300030F0C00003C7CC0C0E0
:104420007C3C000000080F0F0800001C0C84C464D2
:104430003C1C000E0F0908080C0E000000FCFC04D8
:1044400004000000000F0F080800003870E0C08072
:104450000000000000000103070E0000000404FC3F
:10446000FC0000000008080F0F0000080C060306FF
:104470000C08000000000000000000000000000028
:10448000000000202020202020202000000307041E
:10449000000000000000000000000000A0A0A0E05C
:1044A000C00000070F0808070F080004FCFC20608C
:1044B000C08000080F0708080F0700C0E020202078
:1044C000604000070F0808080C040080C06024FC4E
:1044D000FC0000070F0808070F0800C0E0A0A0A01C
:1044E000E0C000070F0808080C040040F8FC440C6A
:1044F000180000080F0F0800000000C0E02020C0D6
:10450000E02000276F48487F3F000004FCFC40206B
:10451000E0C000080F0F00000F0F00000020ECECBF
:104520000000000000080F0F08000000000000203D
:10453000ECEC0000307040407F3F0004FCFC80C089
:10454000602000080F0F01030E0C00000004FCFCAB
:104550000000000000080F0F080000E0E060C060ED
:10456000E0C0000F0F000F000F0F0020E0C0202060
:10457000E0C000000F0F00000F0F00C0E02020205F
:10458000E0C000070F0808080F070020E0C0202047
:10459000E0C000407F7F48080F0700C0E02020C037
:1045A000E02000070F08487F7F400020E0C0602027
:1045B00060C000080F0F080000000040E0A02020AD
:1045C000604000040C09090B0E04002020F8FC20B8
:1045D0002000000000070F080C0400E0E00000E0ED
:1045E000E00000070F0808070F080000E0E00000E7
:1045F000E0E0000003070C0C070300E0E00000000F
:10460000E0E000070F0C070C0F07002060C080C01F
:10461000602000080C0703070C0800E0E000000021
:10462000E0E000474F4848683F1F00606020A0E07E
:104630006020000C0E0B09080C0C00004040F8BC78
:10464000040400000000070F080800000000BCBCC4
:104650000000000000000F0F000000000404BCF880
:104660004040000008080F07000000080C040C0878
:104670000C0400000000000000000080C0603060FA
:10468000C080000707040404070700C9BD00F0004C
:1046900000000000FF0000000000F00000007F208C
:1046A000202020203F20202020207F0000B6AB08C3
:1046B00008088868180FE808080888080C0800002F
:1046C0004021110D41817F0105093161000000BFCA
:1046D000C6242424A4FEA32200244800FF00800056
:1046E0000010080601FF000102020202FF010101A1
:1046F00000BCBC101010FF1010888888FF88888CC0
:104700000800000444827F01808146281028264149
:10471000C04000B4F3202020202020A07FA0202033
:10472000202030200000404020100C03000106082B
:104730001020602000D1A740301196909091969063
:1047400090981413503000040404040444847E063A
:10475000050404040604005F0002020303020404CB
:10476000040600FF05FF05FF00E901D302B620059E
:1047700080CD002106E9C8AC00220693CB24152386
:104780000AACC8A434541A2A012409B3C7A5A14706
:104790004A002508ABC864D446012609ACC8C51434
:1047A000AB98022705D1CB082807F2C7A9660029D4
:1047B00008B2C7C45429002A07ABC8A46A352B081D
:1047C000ABC8C5B462022C0692C729002D058BCA5E
:1047D0000C2E05C9C8042F07ABC85665043008ABBA
:1047E000C8554355003107ABC825590D3207ABC832
:1047F00035531A3308ABC8CC9417003408ABC8241F
:104800003562013508ABC88CA817003607ABC84D18
:10481000D5023708ABC8CC5446003807ABC8ADD674
:10482000023907ABC8B5E4023A06E1C8C4003B0749
:10483000AAC765A8003C07ABC8A6BA003D069BC93D
:10484000EC013E07ABC8E4AA043F08ABC8E894619A
:10485000024006ABC82D5B4108ABC85543A90042D6
:1048600008ABC8A8B4D2024308ABC85532550044BF
:1048700008ABC8A8642D004508ABC88CA8E2004668
:1048800008ABC88CA862044708ABC8CDA492004806
:1048900008ABC82435940A4907ABC8AC580D4A0781
:1048A000ABC896AA024B08ABC824B5920A4C07AB1A
:1048B000C8C4E6004D08ABC8A431940A4E08ABC882
:1048C000AAA124004F07ABC85556055008ABC8A88D
:1048D000B462045107B3C755561D5208ABC8A8B4FB
:1048E000920A5307ABC8EDBC005407ABC8ACD80262
:1048F0005507ABC824D7085608ABC8246BA4045787
:1049000008ABC82435860A5808ABC824D5520159CB
:1049100008ABC8245556005A07ABC8CC540E5B06EA
:10492000EAC8AC4A5C07ABC8C45C065D06AAC8A866
:104930006A5E0593CB355F058BC70C6006D2CBC48E
:10494000006107A3C82D95046208ABC84495D40242
:104950006306A3C8CD2C6408ABC8A6A59200650663
:10496000A3C855536608ABC8A6B462026708ABC7B4
:10497000AD2417006808ABC84495AC006908ABC803
:104980006524D3006A08B3C766582E006B08ABC80D
:10499000C4B4920A6C07ABC8C8D6006D08A3C8A4FB
:1049A000A154006E07A3C8A864056F07A3C855AA41
:1049B000027008ABC7A8B462047108ABC72D956438
:1049C000007208A3C8A41523007307A3C88DBC00F8
:1049D0007408ABC8A51573007507A3C8242B097606
:1049E00007A3C824AB027708A3C82435540078076E
:1049F000A3C8A432157908ABC72495E4027A07A3AB
:104A0000C8CC94067B08B3C7A624EB007C06E9C893
:104A10000C017D09B3C7E4A8628A007E0794CB2508
:104A2000950000000004FFFF0000BF02050405061A
:104A3000010406152600F918FA19F904E10AAE2254
:104A40005B200BD51CF587FFFF7F17002119D51CB4
:104A5000F587532316588BF417879CFB0011689E2B
:104A60000D920F2F002224D51CF58743A2884506FE
:104A700051641045065164104506516410450651B5
:104A800064104506F9F0FF13002343D51CF587EBAE
:104A9000838C3506596390350659638C45C6380FAB
:104AA0008CF1C018171A83AC31C81A83AC31C622F6
:104AB00063A007C478608C07C61964AC31C81A8338
:104AC000AC31061B632C32C622637C78243BD51C98
:104AD000F5875B2412689A520C91900C114488431C
:104AE0000411011141560984654D6B8925464259CF
:104AF0004490450431811041CA182490F240302E70
:104B0000AD5622F56114002541D51CF587DBE41074
:104B1000720A298810A204294490500A112410E333
:104B2000100A049D4016110412582015956AA81DFC
:104B3000344821810C524820831022C820848C44A0
:104B400048398598F2E136002641D51CF587EBE51A
:104B500021A6541144114212212411421221631141
:104B600041186AC799861A098488420611459042FD
:104B70000219A42042CC21E494428C3145A4F28055
:104B8000286990534CF8701B002710D51CF5875BE3
:104B90004292487F1FFE7F06002823D51CF5877BA5
:104BA0002396675C793548450A92487F9244124BB8
:104BB00024B18A241A686289448A02002925D51CF6
:104BC000F587BD210BB46215492C91481229492261
:104BD0007D90440A125820058BB35E8143860F0EE8
:104BE000002A29D51CF5879F2591B6C62043981227
:104BF0008628E40161DC2AD038C488208A0C920A15
:104C0000218898A1C2111F7E14002B18D51CF5878E
:104C10005F2091BEF580200F08F2805024D2F7E18A
:104C200077012C15D51CF587FFFF9D110B34CFC0E4
:104C300012499C228963012D0ED51CF587FFCD6793
:104C4000BE0FFF97002E11D51CF587FFFF2281E6CE
:104C500059907CB805002F29D51CF58783818E4893
:104C60004112491C91C411294822812412482281F1
:104C700024124822812412482281448E0FDB003006
:104C800043D51CF587FBC5A5B592092591420E3188
:104C9000C510530C29A610630A29231042C810849A
:104CA00090310621648C41081183506114428E2199
:104CB000A518628A21A618724821C80493D64AAE64
:104CC0007C783116D51CF58717C8330D2DC54820C3
:104CD0002C1012E9FFBF0F0F3221D51CF587F3C648
:104CE00025C55211E61043904024D2208904D25E9B
:104CF00005E9E250C1FC3E9C063328D51CF587F33C
:104D0000C525C55211260953220D9276186AA8A509
:104D100058451A0A889C61C831C220A654331F5EC8
:104D200000342FD51CF587474624B07AC65D6D0444
:104D3000C248206C08B2C6206B0CA20621891092D2
:104D40004621E881501E08E581E048A4F7E13A00D9
:104D50003525D51CF587D3EE788744BAB8144B0DAA
:104D60009152CE3844924867C621861C624E38A7BD
:104D7000A5D5CC87073635D51CF587FBC5A5B592DB
:104D80000905952212892352C1A8861A32A39C5282
:104D9000C8A10C39C490430C39C4904319724821FE
:104DA000A98892D64AAE7C7801003721D51CF587B8
:104DB000D3EE7871441247A4E288248E48C511A925
:104DC00038220549A42089E4C323003839D51CF5CD
:104DD00087F3A629C552110591520E31E410430EF6
:104DE00031041142521164A586180945114210314F
:104DF000141A86205208228520528A21C7088398D7
:104E000052CD7C783935D51CF587F3C5A5B5920907
:104E10002591420E31E450861C62C821861C624AEC
:104E200029A70C731C6ACA0412A9382249A29054FB
:104E300082416CA5663E3C01003A16D51CF587FF01
:104E40001A81E659907C788940F32C483EDC023B7D
:104E50001CD51CF587FF1A81E659907C7869C4023D
:104E6000CD33B04412A748E29881013C1BD51CF514
:104E7000879F0A72C0E20EBBE70A34F08206DE604A
:104E800089648A0F0F023D1BD51CF587BFFD80206A
:104E90000F08F280F830F880200F08F280F8F02F29
:104EA000023E19D51CF5872F073A6481E8E17B564D
:104EB00033EDB03B671E89E2C3073F25D51CF5875C
:104EC00053A529C59011E6104390400405442205DE
:104ED000092CAF8254A43E240934CF82E4C303409A
:104EE00043D51CF587FBA629C59011E55085A45133
:104EF00086416410350659630C23C818A210328607
:104F000020858C214821630842CA18A30433886095
:104F1000648C45C8288110224B3C8224A6163B1F76
:104F2000AE034138D51CF58717C21C728A05166876
:104F3000DC08C38D301A09848D31D818449141D4CE
:104F4000284331D4903BE310430E31231142122108
:104F5000449131161164910F9701423AD51CF5879F
:104F6000CB4B35E40E21C790530A41A410440A41AB
:104F7000A490430C21C7B8D3D033E4944210292421
:104F8000114212212411421221049142CA29CFB8A0
:104F9000C33E9C07432AD51CF587FBC5A9D4CE1177
:104FA000C614434A418490240C8124D24F92486213
:104FB00041E21443CC11E634A59AF9701E00443E38
:104FC000D51CF587CB4B35E40E21C710530C39A502
:104FD00010440A41A49044084984904408498490AC
:104FE0004408498490440849A310440A41A49043CA
:104FF0000C31C510624E432CA90F2F004522D51C41
:10500000F587CB0F84F240280F8442227DD11DEF1B
:105010009048BFF840280F84F240F8701A004616F6
:10502000D51CF587D3CF7C8644FA62431D2291FEBE
:10503000FBF00C004732D51CF587FBC525D58E1932
:10504000E55085A061480A67447A05115210210590
:105050001192082189148248218818728839C21C4B
:105060009754331FCE034846D51CF587CB04914295
:1050700010290491421029049142102904914210F0
:105080002904914210290F84F240280F84421029EC
:1050900004914210290491421029049142102904DC
:1050A0009142102904914210F9701A004913D51C3D
:1050B000F587D30D758D44FAFFC71AEA3E1C074ADF
:1050C0001CD51CF587EB2C718D44FAFF5430240D50
:1050D00052501145AD955CF9F006004B41D51CF5D9
:1050E00087C30415421029E410431D52082284246A
:1050F000328822A22812CA228130D4124B8C08B2E4
:10510000C8208A8C9208218914824829879862C80D
:1051100021869C52082A8424F2E134004C11D51CCB
:10512000F587CB24D2FFFFC567BE0FB7014D4ED523
:105130001CF587C3630D4212212411524E21E51440
:10514000628A21A61872C621671C42C21408216116
:105150000A84105104214414410819631042C618EE
:10516000841012089508218910920821891092084C
:10517000218910920821897C380D004E4DD51CF5EF
:1051800087CB0491421029E590520E29C690720AED
:1051900029A790820829240C420A09649042C41865
:1051A000A4104115328620850C124821640452084F
:1051B000418594538831851853C829859C5208220B
:1051C000852052481A1F4E034F3BD51CF587F3A686
:1051D00029C59011E61043215208228428328822E2
:1051E00083283288228328328822832832882283A7
:1051F0002842861A8520520822863A4618C4946AA4
:10520000E6C3035029D51CF587CB2C35E40E29C6FF
:1052100090530A41A410440A41A410440A39A590AD
:1052200062CC33EEB04422FDFBF00E005143D51C9E
:10523000F587F3A629C59011E610530A41A410443E
:10524000CA50641045065164104506516410450665
:105250005164104506516410450841A410440C31B6
:1052600015298829D50E1C92C4D4903B1F380052B2
:105270003ED51CF587CB2C35E40E21C790530A414F
:10528000A410440A41A410440A39C490628C3B0D16
:10529000B14408498490440A41A410440C39C41410
:1052A000430E31E49442102904950F9701532FD5F2
:1052B0001CF587FBA6A9D49011C690330E41E2904D
:1052C00048248906A287DE8146529198A048118A17
:1052D00094814839E21887183B1FCE035416D51C19
:1052E000F587C30F08F280200F884522FDFFDF8776
:1052F00017005542D51CF587CB24114212212411E9
:10530000421221241142122124114212212411425D
:10531000122124114212212411421221241142127D
:105320002124114212210495420E316698D3D26293
:10533000E7C37900563BD51CF587C3449141141946
:10534000448D421029041133D038E48C430C41C3FE
:105350008C44CA48841035C858648C450461438C19
:1053600046C268C899674112891C527C780200576E
:1053700052D51CF587BB848D31D818A38832C62836
:10538000838C41C834283206354619A38851C62873
:105390006294218C1885042346216156481062844A
:1053A000618C18411C23CC31A39C42CA29A49C4285
:1053B0000A1A66A461461A66A4614612487C380E31
:1053C000005839D51CF587C32491421031D4216689
:1053D00024424822642C22C8228134E4CC3390C079
:1053E000028D430D3122C822822842482284206245
:1053F00028440A418410453E5C065929D51CF5878E
:10540000C344914112290491420E65C8218524426A
:105410004822642C22C8226234D4CE33AF44FAEF3F
:10542000C30B005A2ED51CF587CB0F84F240280FF2
:1054300004482281542490C411092491402A12481E
:10544000E28804923858200F08F280200F880F97C6
:10545000015B14D51CF5873B2C718944FAFFFF22B0
:105460004BDC870A005C2BD51CF587BD1189249184
:10547000481289249148128924914812892491481C
:1054800012891C92C8214924924422870C1F0E01C4
:105490005D12D51CF5872B0D7591FEFF7FA8F721B6
:1054A00003005E20D51CF5871784249140E3501B30
:1054B000813022C81A642842082266A870C287FF79
:1054C00087015F13D51CF587FFFF671F18E3813144
:1054D0001E181F1A00601AD51CF5873B818A29E621
:1054E00090249258C112899CE690E2C3FF4100616A
:1054F0002AD51CF5877FE1B0951A2AC2A48048A45A
:10550000123BCE3C530C290491424E29C4986204AC
:1055100032EFB85406F9701A006233D51CF58723B0
:1055200024D24F14D5903B4718530C754A21881448
:1055300082482188148248218814824821879862F1
:105540008831C318774648688CF2E1016321D51C85
:10555000F5877FC234A51832C2986228240C89F4DA
:105560002489E5087444412DA9663E9C076435D51D
:105570001CF5878324D2A78A20A81D678C388698BB
:105580005208228520520822852052082285205266
:105590000822A51C628829C688731C6AAA08F2E141
:1055A0003400652CD51CF5877FC134A5582AC21C50
:1055B00062C819881482487920940742792014120D
:1055C000492C91A0908C30A729D5CC87F300661C7C
:1055D000D51CF58763A629C55211051123128954DC
:1055E0006BA86324D2FFFBF006006736D51CF58755
:1055F000BF5FC838AF3C100A21E510331031E4100A
:10560000430E2905155112534AA54562810EB9F37F
:105610000A418490440849849C61CC3B6CA10E00F3
:105620006836D51CF5872B24D26F94440242EEA035
:10563000508E29C414431D62C821861C62C821866D
:105640001C62C821861C62C821861C62C821861C77
:1056500062C8211F4E036919D51CF58753431258A0
:105660002289E3838C1A16E9FF1A4BDC87E3006A70
:105670001FD51CF58773231658C5F181554B8BF444
:10568000FF53C190244A414594B45672E6036B35EA
:10569000D51CF5872324D2EF94424C31A49443487F
:1056A000416410450459241096B112C8228328324F
:1056B0004A22A42052CA21861C628A21A71482CAC7
:1056C00087CB006C12D51CF5872B896591FEFFC72F
:1056D000DCF13EDC066D1DD51CF5873F4D0219A49B
:1056E0003C20C8036394604219F4FFFFFFFFDF878B
:1056F000CB006E35D51CF587BF4D46492420E40EFE
:105700000AE598424C31D421861C62C821861C626D
:10571000C821861C62C821861C62C821861C62C8FA
:1057200021861CF2E136006F30D51CF5877FA1B8C9
:10573000B41832C19C528A21871492082189109290
:10574000082189109208218914728829861C134C1B
:10575000622AB9F2E105007034D51CF587BF4D44CB
:10576000510DB9738431C550A71482482188148221
:105770004821881482482188147288298698238CAD
:1057800071A721228A2291DE0705007132D51CF50E
:1057900087BF5F0441ED3863C431C49442102904CB
:1057A0009142102904914210290491421031E410D1
:1057B000434C31469CE350534590485F06721CD5DC
:1057C0001CF587BF4E464924A4F34C0AE418234E27
:1057D00081059248FF7D7805007327D51CF5877FEA
:1057E000E1B095DA31E21872C62128A012CF530E2B
:1057F00041138B118998814839C21C87D83A1F1EE2
:10580000741DD51CF58757492471C8A9B9E32D1219
:10581000E9BF22940964AD959AF9701C007535D5DD
:105820001CF587BF4D0E31E410430E31E410430EDA
:1058300031E410430E31E410430E31E410430E31D5
:10584000E410430E31A59463C2390E355504F97046
:105850001B007630D51CF5873F5DD228248D421081
:1058600031038D43CE38C41044CA48A40C35C858FF
:10587000648C450461248C869C79E69548E2F8F0B6
:1058800004007743D51CF587BF4C16196391318A04
:1058900020640C42066D0C420619A38C51C42843A7
:1058A0001831CA10468C428208438C428210230C65
:1058B000638439469853863985945348418490349B
:1058C000CCF8701C00782FD51CF587BF4D1029C56A
:1058D00090430A4984104504592490769E79051610
:1058E000681C6244104506518410440C754A218896
:1058F0007C380D007939D51CF587BF4D12210491F4
:10590000421031E41043CE40C31044CA50831045C6
:105910000651640C460261240C37C270E71558200A
:1059200089D40A84AC21CA4A0CBDF2C1007A1DD5C3
:105930001CF5873FFECC07E9607915A4C1F2CA7B4C
:105940002094074279207C380D007B20D51CF587F8
:10595000270E4B4B29F348A40F12775C812616398A
:105960002489F417CF532C3594017C0ED51CF58770
:105970005324D2FFFFFFE7017D21D51CF587D3C754
:1059800025A6609124D227493CB03CE3082491FE2F
:10599000607166A995D8F920007E17D51CF5877F20
:1059A000F314515628E3015106418F7CF87F020021
:1059B000A00BD51CF587FFFF7F1700A118D51CF59C
:1059C0008753049A6783E40334E414E91FAC17C7D0
:1059D000872700A240D51CF58737482471C8018B62
:1059E0004BAA9D129029828461C818231842C608C8
:1059F0008690A108198A90A1C8208A0CA2C8188C88
:105A00008841C229610C815028A8A5C58E1B72F659
:105A1000610100A32BD51CF587FBC5A5B592092410
:105A200095121489144C2C73449248174724F0980B
:105A3000605618E501418A5025A0F2E13800A429FA
:105A4000D51CF5878F8B24CE3B2DAD540649E30C36
:105A500034CE40E30C440A492594D4CE3343143168
:105A60004E50E2C3BF0900A52FD51CF587C34411D2
:105A70004210290411431D624622842442C6228218
:105A800030124643CE3C030973C7632412E68EC727
:105A900048A43EBC0000A611D51CF5875324D2FFB4
:105AA000F7012791FE9F07A73AD51CF5874BA6293A
:105AB000C55211E610331031229158A281A8293520
:105AC000C4418498430C39C4906308414CA986A012
:105AD000892512240E39C3147344414DA9663EE44E
