:020000040800F2
:10000000980F0020D9010008FF18000819170008F0
:10001000FD18000857130008092A00080000000016
:10002000000000000000000000000000052600089D
:10003000131600080000000001250008BD26000876
:10004000F3010008F3010008F3010008F3010008C0
:10005000F3010008F3010008F3010008F3010008B0
:10006000F3010008F3010008F3010008F3010008A0
:10007000F3010008F3010008F3010008F301000890
:10008000A9130008F3010008F3010008F3010008B8
:10009000F3010008F3010008F3010008F301000870
:1000A000F3010008F3010008F3010008F301000860
:1000B000F3010008F3010008F3010008F301000850
:1000C000F3010008F3010008F3010008F301000840
:1000D000F301000815280008F30100085D28000856
:1000E000F3010008F3010008F301000800F002F832
:1000F00000F049F80AA090E8000C82448344AAF179
:100100000107DA4501D100F03EF8AFF2090EBAE876
:100110000F0013F0010F18BFFB1A43F0010318473B
:10012000083B0000283B0000103A24BF78C878C183
:10013000FAD8520724BF30C830C144BF04680C60ED
:10014000704700000023002400250026103A28BF35
:1001500078C1FBD8520728BF30C148BF0B60704739
:10016000662902F06187002070471FB500F039F959
:1001700000F0CCFB04000020002102F0D3FCE06082
:100180001FBD10B510BD00F0BDFC1146FFF7EDFF1F
:1001900002F066FC00F0DBFC03B4FFF7F2FF03BCE7
:1001A00002F04EFC0B49D1F800C04A685CF8043BF1
:1001B0001068184442F8040B8C4528BFA1F1DC0CF0
:1001C0008A4228BFA1F1DC02C1F800C04A6020F0D9
:1001D000004070472C090020094880470948004723
:1001E000FEE7FEE7FEE7FEE7FEE7FEE7FEE7FEE7E7
:1001F000FEE7FEE704480549054A064B7047000044
:10020000CD260008ED00000898090020980F002076
:10021000980B0020980B0020704700000FB4044991
:1002200010B503AA029800F037FB10BC5DF814FB70
:10023000480000200FB41CB5074B06AA7B44694652
:100240000090059800F00FFB0020694600F01EFBAF
:100250001CBC5DF814FB00004D06000070B50446A0
:1002600085690068C10601D5302600E02026C00758
:1002700007D070BDD4E9012130469047206A401C68
:1002800020626D1EF6D570BD70B504468569007894
:10029000C00707D170BDD4E9012120209047206A12
:1002A000401C20626D1EF6D570BD2DE9F0474FF061
:1002B000000A89460446C0F820A02046E168884725
:1002C000002876D0252806D0D4E901219047206A5D
:1002D000401C2062F1E7E168204600258847C4F809
:1002E0001CA006460027C4F818A02A2E09D03046C4
:1002F00002F09FFB38B304EB8708303EC8F8186063
:1003000019E059F8041B204604EB87029161E1686B
:100310008847012F064618D1E069002820DA25F029
:1003200020051DE0D8F8180000EB800006EB400027
:100330003038C8F818002046E1688847064602F0C1
:1003400078FB0028EED1012F0AD02E2E08D12046AE
:10035000E16888477F1C0646022F45F02005C4DB74
:10036000A069002803DA404245F00105A061E807D2
:1003700001D025F01005B6B1A6F14100192802D828
:10038000203645F400654A463146204625604D46F4
:10039000FFF7E6FE58B1012806D0ED1D25F0070055
:1003A00000F1080989E704E005F1040985E7304612
:1003B0008AE7206ABDE8F0870B4910B5A1F17C02FD
:1003C0000A4CC2E93712372106E000EB104342F82D
:1003D0002130074B00FB03400B1EA1F10101F4DCAF
:1003E00010BD0120E8E70000CC080020E119D66626
:1003F000CD0D01004FF000020429C0F0128010F072
:10040000030C00F05D82CCF1040CBCF1020F18BFAC
:1004100000F8012BA8BF20F8022BA1EB0C0100F083
:100420004FBA5FEAC17C24BF00F8012B00F8012B12
:1004300048BF00F8012B70477047704770477047FE
:1004400070472DE9FF4F0C461E464FF0FF378BB02B
:10045000D2E90001DDF860800A908A46C1F30A55AE
:1004600005B93D46002108464FF00000BAF1000FE3
:1004700000F4400005DA00EB80004FF4400101EA8F
:1004800050004FEA9059B9F1010F00DDB9460A98C2
:1004900050EA4A000ED044F61050A5F2FF3545430D
:1004A0002F14B8F1000F1ED07542291E1EDDC9F1B0
:1004B00000021CE0B8F1010F4FF0000001D0302124
:1004C00003E0F24305E02154401CB042FBDB304620
:1004D0000022002121540B99C1F80880C1E90020B5
:1004E0000FB0BDE8F08FBD1B6D1CDEE74A4600DA99
:1004F000694206A800F094FA06AB93E8070003AB44
:1005000083E8070050460A9900F06AFB8DE807006F
:10051000A0F500501F3800900398002D09DD42F22D
:100520001F014A46084403A90390684600F0C9FD2C
:1005300008E0A0F500504A461F3803A9039068461A
:1005400000F0D3FD8DE807000004000C03D04FF04D
:10055000FF30410800E01046B8F1000F03D0002240
:10056000009215461EE0751E05D400F0D3F9303216
:1005700062556D1EF9D5B3460122084302D0002210
:100580007F1C04E02078302801D100227F1E002A41
:10059000099786D01DE0112D07DA00F0BBF9303243
:1005A00062556D1C50EA0102F5D1084302D0009853
:1005B000C8B10EE00021681E05E0235C625C635454
:1005C0002254401E491C8142F7DBAB46A81B401E4B
:1005D0000990002004F80B000B98099AC0F80880D5
:1005E000C0E9002B7CE711264FF0000859E72DE900
:1005F000F04F88460446D21D22F0070191B0D1E9A0
:100600000001CDE90A0102F000FA02460B98C00F82
:1006100001D02D2007E02068810701D52B2002E0C2
:10062000202101EAC000032A099001D0072A05DB36
:1006300003464146204600F0B3F90BE120788006DE
:1006400001D5E06900E00620B8F1650F814606D0CB
:10065000B8F1660F18D0B8F1670F70D131E0002003
:10066000B9F1110F009001DB112301E009F1010341
:100670000AAA01A90CA8FFF7E4FEDDE90C70002628
:1006800009F10105834647E001204B4600904FF0F9
:1006900000470AAA01A90CA8FFF7D3FEDDE90DB0B7
:1006A0000C995D46002610B909F101000D18B9EB4F
:1006B000050003D4C0F1FF3609F10105A5EB0900DF
:1006C0002BE0B9F1010F01DA4FF001090020B9F177
:1006D000110F0090484601DD112300E003460AAAED
:1006E00001A90CA8FFF7ADFEDDE90C704D46002610
:1006F0008346207800070AD4AB4500DA5D4601A89E
:10070000012D04DD411911F8011C302907D04F4596
:1007100002DA17F1040F04DA012082460FE06D1EA1
:10072000EEE7002F02DCED1B3E4403E0781CA842FC
:1007300000DD7D1CB81B00F1010A4FF00047207856
:10074000000703D4AA4501DB4FF0FF3A0021B7F1BF
:10075000004F0DF143088DF8431024D002202B23C5
:10076000002F01DA7F422D230A21021EA0F1010091
:1007700000DC5FB197FBF1FC97FBF1F201FB1C7C05
:1007800017460CF1300C08F801CDEEE7A8F1010096
:1007900003702188090501D5452100E06521A0F1FC
:1007A000010800F8011C09980FA9A1EB0807FF1D1B
:1007B00000B10120411901EBEA70A1693844081A1F
:1007C000401EA0612078C00602D42046FFF746FDF7
:1007D000099828B1D4E901219047206A401C206281
:1007E0002078C00622D52046FFF738FD1EE0002EF7
:1007F00004DBB34502DD01A8805D00E03020D4E9D0
:1008000001219047206A401C2062761CAAF1010059
:100810005FEA000A0AD100F079F8C0680168405C1C
:10082000D4E901219047206A401C2062281EA5F1CE
:100830000105DCDC07E0D4E9012118F8010B904741
:10084000206A401C2062381EA7F10107F3DC204615
:10085000FFF71AFD032011B043E6000001694A1CAE
:1008600002610878704700B58FB0CDE901310021F1
:10087000059105497944CDE9031011466846FFF713
:1008800014FD0FB000BD0000E5FFFFFF0A6802F88D
:10089000010B0A6070470000074B70B50D467B44A2
:1008A000FFF7E1FF0446284602F0CBF810B14FF005
:1008B000FF3070BD204670BDA72100004FF0000240
:1008C00000B5134694469646203922BFA0E80C5046
:1008D000A0E80C50B1F12001BFF4F7AF090728BF21
:1008E000A0E80C5048BF0CC05DF804EB890028BF9D
:1008F00040F8042B08BF704748BF20F8022B11F0C6
:10090000804F18BF00F8012B704700000048704767
:100910005409002030B5B0F10A024FEA900E71F18F
:1009200000034EEA817EB0EB0E0061EB91014FEACD
:10093000101E4EEA017E10EB0E0041EB11114FEA42
:10094000102E4EEA016E10EB0E0041EB11214FEA22
:10095000104E4EEA014E10EB0E0041EB11414018D3
:1009600041F100014FEAD00040EA41704FEAD10165
:1009700010EB80054FEA810444EA907444EB0104D3
:100980006D1944EB0404521BA3414FF0000348BF10
:100990000A3200D530BD401C41F1000130BD0000DD
:1009A0002DE9F0411F46044603260168072A01F499
:1009B000006004DB08B116A505E016A503E008B148
:1009C00015A500E015A521F010002060A069C01E4B
:1009D000A0610FB1401EA0612046FFF73FFC4FB160
:1009E000D4E9012138469047206A401C2062C01C8F
:1009F000206206E0206AFAE7D4E9012115F8010B2C
:100A00009047761EF8D22046FFF73EFCBDE8F08105
:100A10004E414E006E616E00494E4600696E6600A2
:100A20002DE9F047814616468AB0334878440DC810
:100A30008DE80D0030487844801C03AC0DC884E874
:100A40000D0041F69B300844372190FBF1F290FBFA
:100A5000F1F5A5F1800501FB12041B3C02D56442AF
:100A6000012000E00020DFF890A080460027FA4433
:100A7000AAF1BE0A0DE0E00709D03246684607EB4E
:100A800047010AEB810100F030FB8DE8070064109C
:100A90007F1C002CEFD1184F7F44AC3F18E0E807D3
:100AA00014D007EB04100DF1180A90E80E008AE844
:100AB0000E00C068F04201D198190890324606A98C
:100AC00003A800F012FB03AB83E807006D10641C61
:100AD000002DE4D132466946B8F1000F03A802D0D8
:100AE00000F0EFFA01E000F000FBC9E90001C9F8ED
:100AF00008200AB0BDE8F087E031000000487047E8
:100B0000340900207546FFF7F9FFAE460500694637
:100B1000534620F00700854618B020B5FFF76AFB62
:100B2000BDE820404FF000064FF000074FF00008EE
:100B30004FF0000B21F00701AC46ACE8C009ACE86F
:100B4000C009ACE8C009ACE8C0098D46704710B5D3
:100B50000446AFF300802046BDE81040FFF71CBB01
:100B60004FF0013C50F8042B51F8043B9A4221D13C
:100B7000A2EB0C03934313EACC1317D150F8042BC8
:100B800051F8043B9A4215D1A2EB0C03934313EAAC
:100B9000CC130BD150F8042B51F8043B9A4209D1E5
:100BA000A2EB0C03934313EACC13DBD04FF000000D
:100BB000704700BFD01A01BAB1FA81F101F01801F3
:100BC00022FA01F0CB40C1F12001DBB2C0B2C01A61
:100BD0002CFA01F3D11A914311EAC311E6D17047FF
:100BE0005FEA400C08BF91F0000F4FEA8C234FEAF8
:100BF000C12243EA51514FEA1C5018BF00F5F040A2
:100C00004FEA300018BF41F000415FEA6C5C00F031
:100C10002980BCF1FF3F08BF40F080407047130CB3
:100C200006BF12044FF0100C4FF0000C130E04BF5F
:100C300012020CF1080C130F04BF12010CF1040C8A
:100C4000930F04BF92000CF1020CD30F04BF5200AB
:100C50000CF1010C11464FF00002A0F11F00A0EBB7
:100C60000C00704711F0004F08BF704731F0004191
:100C70003FF4D5AF0B0C06BF09044FF0100C4FF03A
:100C8000000C0B0E04BF09020CF1080C0B0F04BF83
:100C900009010CF1040C8B0F04BF89000CF1020C4C
:100CA000CB0F04BF49000CF1010CCCF12003A0EBE9
:100CB0000C0022FA03F302FA0CF241EA030100F1FC
:100CC0000100704720F07F4C80EA030023F07F474B
:100CD000ACEB070303F57C5300F0004003F1FF0386
:100CE0002DE980494FEA154B09B44FEA144325EA30
:100CF0000B4E24EA03480FF2042606EB132749089B
:100D00003E785FEA320203FB0667C7F5000707FB80
:100D100006F64FEA54374FEAD64606F1020607FBBD
:100D2000066CCCF1005C4FEA1C472CEA074C07FB31
:100D300006F40CFB06F504EB15464FEA961634BF95
:100D400000204FF000404FEAD13706FB07FC4FEA86
:100D50001C4C0CFB0BF7D21B03FB0CF761EB0701E0
:100D60000CFB0EF7B0EB074072EB17420CFB08F7D9
:100D700034BFA2EB0742B2EB074261EB17414FEAE7
:100D80000C444FEA910706FB07FC4FEA1C4C0CFB96
:100D90000BF7B0EBC74072EB573203FB0CF734BFD5
:100DA000A2EBC742B2EBC74261EB57310CFB0EF727
:100DB000B0EBC70072EB57720CFB08F734BFA2EB25
:100DC000C702B2EBC70261EB5771039F4FEA816123
:100DD00041EA921104EBCC044FEAD1374FEA826228
:100DE00006FB07FC42EA90124FEA80604FEA1C4C77
:100DF0000CFB0BF7D21B03FB0CF761EB07010CFBA1
:100E00000EF7B0EB074072EB17420CFB08F734BF4C
:100E1000A2EB0742B2EB074261EB17414FEA8C5558
:100E20004FEA910704EB9C2406FB07FC4FEA1C4C9D
:100E30000CFB0BF7B0EBC74072EB573203FB0CF720
:100E400034BFA2EBC742B2EBC74261EB57310CFB98
:100E50000EF7B0EBC70072EB57720CFB08F734BF0C
:100E6000A2EBC702B2EBC70261EB577115EB4C2541
:100E70004FEA816141EA92114FEA82624FEAD1372B
:100E800042EA901206FB07FC44F100044FEA80603E
:100E90004FEA1C4C0CFB0BF7D21B03FB0CF761EB6E
:100EA00007010CFB0EF7B0EB074072EB17420CFB8F
:100EB00008F734BFA2EB0742B2EB074261EB1741E0
:100EC00015EB1C154FEA813141EA92414FEA82321B
:100ED00042EA90424FEA80304FEA0C7644F1000437
:100EE00048EA03434EEA0B484FF0000EB2EB080C01
:100EF00071EB030724BF624639464EEB0E0E4FF0EE
:100F0000000B0018524149414BEB0B0BB2EB080CA4
:100F100071EB03077BF1000B24BF624639464EEBB1
:100F20000E0E4FF0000B0018524149414BEB0B0BDA
:100F3000B2EB080C71EB03077BF1000B24BF624698
:100F400039464EEB0E0E51EA020718BF46F0010675
:100F500016EB0E7655F1000254F1000103D5BDE801
:100F60008901BDE80088BDE88901BDE80048B619DF
:100F7000524141EB0101A3F10103704780807F7E64
:100F80007D7C7B7A797877767675747372717170FF
:100F90006F6E6E6D6C6C6B6A6A69686867666665B1
:100FA0006464636362616160605F5F5E5E5D5D5C3F
:100FB0005C5B5B5A5A5959585857575656555555B0
:100FC0005454535352525251515050504F4F4F4E10
:100FD0004E4D4D4D4C4C4C4B4B4B4A4A4A4949495E
:100FE00048484847474747464646454545444444A0
:100FF000444343434342424242414141002B26D4B1
:10100000770021D01CB54FEA370703B44FF010002A
:101010004FF010014FF000000FBCBDE810400BF185
:10102000010BBBF1010F08BF5FEA170722BF12F1E6
:10103000010211F101014FF0004143F1000300F002
:10104000004043EA00007047F9D35708DAE746EA60
:10105000064613F1400F4FEA16461FDD13F1200F2D
:10106000DFBF16430A46002120335B42C8D0C3F1DC
:10107000200746EA064602FA07F74FEA164646EA0E
:101080000706C3F1200722FA03F201FA07F721FA53
:1010900003F14FF0000342EA0702B1E746EA020615
:1010A00046EA06464FEA164646EA0106BCBF46EA4D
:1010B0000646360C4FF000034FF000024FF00001DF
:1010C0009EE72DE9C048934630B491E8380007C840
:1010D00031EA400C48BF34EA430C03D5FFF7F2FD78
:1010E000FFF78CFFF0BCBDE800882DE9C0489346AF
:1010F00030B491E8380007C810F0804F08BF13F0F3
:10110000804F03D100F005F8FFF778FFF0BCBDE891
:10111000008820F07F4780EA030023F07F4C07EB34
:101120000C03A3F57C5300F00040A3F1FE0392F002
:10113000000F00F0B38095F0000F00F077802DE9EC
:1011400001494FEA11404FEA144621EA004800FBEA
:1011500006FC24EA064708FB06F607FB08F800FB36
:1011600007F718EB06484CEB164C4FEA124B18EBFE
:1011700007484FEA15464CEB174022EA0B4E0BFB93
:1011800006FC25EA06470EFB06F607FB0EFE0BFBE8
:1011900007F71EEB064E4CEB164C4FF000061EEB0D
:1011A000074E4CEB174B18EB0B0840F1000018EB07
:1011B0000E0B58EB000840F100008F1A4FF00001B1
:1011C0003CBFC943661B14BFB5EB040C00213CBFF8
:1011D000C943F61B4FEA17444EEA8E0E27EA044530
:1011E0004FEA1C4704FB07622CEA074C05FB07F794
:1011F0000CFB05F604FB0CFC16EB074642EB174212
:1012000016EB0C4642EB1C421BEB060658EB0202A7
:10121000414146EA9E0601D5BDE80189B619524111
:1012200041EB0101A3F10103BDE801894FEA144537
:101230004FEA114724EA054621EA074C05FB07F46B
:1012400006FB07F70CFB06F105FB0CFC11EB074155
:1012500044EB17444FEA124711EB0C4144EB1C449A
:1012600022EA074C05FB07F206FB07F70CFB06F624
:1012700005FB0CFC16EB074642EB174216EB0C463F
:1012800042EB1C456A1854F1000148BF7047B6197B
:10129000524141EB0101A3F10103704795F0000FAA
:1012A00037D04FEA11424FEA144721EA024624EAB6
:1012B000074C02FB07F106FB07F70CFB06F402FBE9
:1012C0000CFC14EB074441EB17414FEA154714EBB4
:1012D0000C4441EB1C4125EA074C02FB07F506FBD9
:1012E00007F70CFB06F602FB0CFC16EB074645EB7A
:1012F000174516EB0C4645EB1C42121951F1000143
:1013000048BF7047B619524141EB0101A3F10103F7
:1013100070474FEA14454FEA114724EA054621EA8F
:10132000074C05FB07F106FB07F70CFB06F24FF035
:10133000000605FB0CFC12EB074241EB174112EBD8
:101340000C4251EB1C4148BF7047921841EB010120
:10135000A3F101037047FEE710B50121042001F05D
:10136000EDF80121082001F0E9F80121102001F039
:10137000E5F80121084601F0E1F80121880301F0B8
:10138000DDF80121880401F0CBF80121480501F0C6
:10139000C7F80121880501F0C3F80121BDE810401C
:1013A000084601F0AFB800002DE9F05F4FF480551A
:1013B0002C46680200F0F4F8DFF8A8802A4E0027D7
:1013C00008F10409A0B3DFF89CA0DFF8A0B0AAF1EF
:1013D000140A641E05D05946504600F0DAF9002878
:1013E000F7D00121504600F0C8F94FF400346D1ECB
:1013F00005D02146504600F0CCF90028F7D1002155
:10140000504600F0A2F90021194800F03FF84FF4CF
:10141000001000F02FF8B8F80000B9F8000070686C
:1014200038B1002000F05AFE0028FAD1BDE8F09F44
:1014300001E0B760FAE7082000F0B2F80028F5D024
:101440000B4800F031F8B8F80000B9F800007068F7
:1014500028B1002000F042FE0028FAD1E6E7B7608C
:10146000E4E70000145400401400002004000010C1
:101470006C000240C10002D5024908607047024971
:10148000486070470404024000000240002904D074
:10149000016841F001010160704701684FF6FE727A
:1014A000114001607047000001684FF6FE72114064
:1014B00001600021016041608160C1603649364AA7
:1014C0000839904204D1486840F00F0048607047E6
:1014D000314A1432904204D1486840F0F00048602C
:1014E00070472D4A2832904204D1486840F4706019
:1014F00048607047284A3C32904204D1486840F422
:10150000704048607047244A5032904204D1486885
:1015100040F47020486070471F4A6432904204D102
:10152000486840F47000486070471B4A7832904227
:1015300004D1486840F0706048607047174A111F36
:10154000904204D1086840F00F0008607047134AC9
:101550001432904204D1086840F0F00008607047EF
:101560000E4A2832904204D1086840F47060086046
:1015700070470A4A3C32904204D1086840F47040F7
:1015800008607047054A50329042FAD1086840F42A
:101590007020086070470000080002400804024004
:1015A00002460020D10002D50449096801E004493F
:1015B0000968114200D00120704700000004024079
:1015C00000000240002A03D002680A43026070470C
:1015D00002688A430260704730B5026847F6F073CC
:1015E0009A430C6A8B682343D1E904452C43234377
:1015F0008C692343CC6923434C6A23438C6A23437D
:1016000013430360CA6842600A6882604968C16027
:1016100030BD70472DE9F0410022CC7804F00F0373
:10162000E40601D58C7823430C784FF00F0714F0B3
:10163000FF0F4FF0010C1CD005680CFA02F40E8865
:101640002640A64211D1960007FA06F825EA0805B9
:1016500003FA06F848EA0505CE78282E02D0482E6F
:1016600002D002E0446100E00461521C082AE4D385
:1016700005600A88FF2A1ED94568002202F1080683
:101680000CFA06F40E882640A64210D1960007FAFE
:1016900006F825EA080503FA06F848EA0505CE78B3
:1016A000282E00D14461CE78482E00D10461521C0E
:1016B000082AE3D34560BDE8F0810000F0B5154C81
:1016C000002801DAE36900E06368C0F30346420DD5
:1016D000120185B2C0F301579540032F07D0C20213
:1016E0000CD50322B240934343F0706209E023F02B
:1016F0007062636823F07063636002E0AB4343F0A1
:10170000706201B12A43002801DAE261F0BD626033
:10171000F0BD000000000140FEE7034600209A8A69
:101720001B8B1B041A4322F07F42914300D10120FE
:101730007047002904D0018841F001010180704701
:10174000018821F0010101807047002904D08188BF
:1017500041F4006181807047818821F400618180BB
:101760007047002904D0018841F4807101807047DE
:10177000018821F4807101807047002904D001881C
:1017800041F4007101807047018821F400710180EB
:1017900070470CB50246002000920A0F019221F01A
:1017A0007F41019A002A03D0009A1432009203E08C
:1017B000090C009A18320092009A12680A4200D06E
:1017C00001200CBD70B586B004460D46A08820F0FF
:1017D0003F0601A800F0C0FE03982849B0FBF1F1D4
:1017E00089B20E43A680228822F001022280244B77
:1017F0002A689A4209D85200B0FBF2F080B204285D
:1018000000D20420491C218423E0EB88A3F53F4645
:10181000FF3E0BD002EBC20303EB0212B0FBF2F06F
:1018200080B240F48040020506D007E002EB42029D
:10183000B0FBF2F080B2F6E740F0010040F4004067
:101840004FF4967251434FF47A72B1FBF2F1491C96
:101850002184A083208840F00100208020884FF65A
:10186000F5310840A9886A89114301432180A8897C
:1018700029890843208106B070BD000040420F0056
:10188000A0860100002A02D041F0010101E001F030
:10189000FE01018270470182704738B54FF4A060A5
:1018A00000F060F80A214FF0FF3000F065F82520C5
:1018B0008DF8000001248DF801408DF802408DF86C
:1018C0000340684600F01CF827208DF800008DF8D2
:1018D00001408DF802408DF80340684600F010F892
:1018E00010208DF8000000208DF801008DF80240D6
:1018F0008DF80340684600F003F838BDFEE77047F6
:1019000070B50F23C27801260178002A1ED0144A30
:10191000126802F4E062C2F5E062120AC2F1040445
:10192000D3404578A54082781A402A43120101F13C
:10193000E02181F80024007800F01F018E4040096A
:10194000800000F1E020C0F8006170BD01F01F00D0
:1019500086404809800000F1E020C0F8806170BD39
:101960000CED00E00249084302490860704700009E
:101970000000FA050CED00E00907090E002806DA60
:1019800000F00F0000F1E02080F8141D704700F116
:10199000E02080F80014704718B5012410231CA221
:1019A00000212046009400F021FA102319A2002102
:1019B0001720009400F01AFA102317A200212D20FE
:1019C000009400F013FA102314A200214320009485
:1019D00000F00CFA102312A200215920009400F00C
:1019E00005FA10230FA200216F20009400F0FEF9E9
:1019F0000020102300900CA21421184600F0F6F9E4
:101A00000C230DA228211020009400F0EFF918BD3E
:101A1000C9BD0000B6AB0000BFC60000BCBC0000E2
:101A2000B4F30000D1A70000C9BDB6ABBFC6BCBCB3
:101A3000B4F3D1A7000000006769746875623A20AA
:101A4000636E5A686972616E0000000070B500250F
:101A50000021284600F0EAFB0024002000F0CEFC24
:101A60000028FAD1641CE4B2802CF6D36D1CEDB2D0
:101A7000082DEDD370BD000010B50021074C0022E9
:101A8000002004EBC1131A54401CC0B28028FAD3C2
:101A9000491CC9B20829F3D310BD0000680000201A
:101AA000024901204860002000F018BB140000200B
:101AB00010B58CB00F4801900F480290002005909F
:101AC000802106910790089009904FF440510A91A7
:101AD0000B901020039080010490084C01A920462F
:101AE000FFF77AFD01220A212046FFF76BFD0CB0BB
:101AF00010BD000010540040680000206C0002403F
:101B00002DE9F04F8046099E0C46203A02F0FF096D
:101B1000B8F17F0F68D83F2C66D80C2B13D0002764
:101B2000524807EB091110F801A0002508EB070B3C
:101B30005FEACA705CD06019C1B20BF0FF00324698
:101B400000F034F95CE0002709EB4909484807EB4D
:101B5000890110F801A0002508EB070B5FEACA70A5
:101B600007D06019C1B20BF0FF00324600F01EF939
:101B700007E02EB300226019C1B20BF0FF0000F0A5
:101B800015F94FEA5A0A6D1CEDB2082DE6D37F1CF9
:101B9000FFB2062FDAD30027354807EB8901084446
:101BA00090F806A0082508EB070B5FEACA7009D079
:101BB0006019C1B20BF0FF00324600F0F7F809E0FF
:101BC0000122D8E796B100226019C1B20BF0FF00E4
:101BD00000F0ECF84FEA5A0A6D1CEDB20C2DE4D37C
:101BE0007F1CFFB2062FD7D3BDE8F08F0122EBE7B1
:101BF0002EB300226019C1B20BF0FF0000F0D6F83E
:101C00004FEA5A0A6D1CEDB2082D91D37F1CFFB22A
:101C1000082F85D30027154807EB0911084490F8D1
:101C200008A0082508EB070B5FEACA7009D0601905
:101C3000C1B20BF0FF00324600F0B8F809E0012213
:101C4000D8E78EB100226019C1B20BF0FF0000F09E
:101C5000ADF84FEA5A0A6D1CEDB2102DE4D37F1C8B
:101C6000FFB2082FD7D3BFE70122ECE7C734000843
:101C7000473000082DE9F0437F282ED838292CD88A
:101C8000CE0801F007010BB9D243D2B202FA01F536
:101C9000FF2404FA01F3DFF8488005EA030908EBA2
:101CA000C61717F800C04CEA090C65EA03050CEAF0
:101CB000050C07F800C000290FD0761CF3B2C1F163
:101CC0000801CA40CC4008EBC31102EA04030D5CD2
:101CD0001D4362EA040215400D54BDE8F083000084
:101CE000680000202DE9F04F0446894616469A46C2
:101CF000DFF8B48009F1080750E07F2C51D80020AC
:101D000000EB001118F811309A4205D108EB41019F
:101D1000737849788B4203D0401CC0B20628EFD3B9
:101D2000062823D0002500EB001008EB400B0BEB3E
:101D30000500534682786019C0B24946FFF79AFF02
:101D40006D1CEDB2102DF2D300250BEB0500F9B29E
:101D5000827C6019C0B25346FFF78CFF6D1CEDB258
:101D6000102DF2D3B61C1034E4B217E0002504EBBA
:101D7000050B0BF0FF00534600224946FFF77AFFA0
:101D8000F9B20BF0FF0053460022FFF773FF6D1C02
:101D9000EDB2082DEBD3761C0834E4B23278002A79
:101DA000ABD1BDE8F08F0000C73A000810B57F281E
:101DB00011D83F290FD801F007040123A340DBB25B
:101DC000094CC90804EBC111022A05D0012A07D029
:101DD0000A5C9A430A5410BD0A5C5A400A5410BD6A
:101DE0000A5C1A430A5410BD680000202DE9FC412A
:101DF0000446089F0D4616460C2B14D04FF00008E1
:101E000048E0782C02D900240C35EDB23A2D01D9E6
:101E1000002425460C23294620460097FFF770FE34
:101E2000A41DE4B2761C3278002AEAD1BDE8FC8118
:101E30007F2A19D9702C02D900241035EDB23A2D21
:101E400001D9002425468DF8042070788DF805000E
:101E50008DF806803B4601AA29462046FFF742FF3F
:101E6000B61C1034E4B215E0782C02D900241035E9
:101E7000EDB23A2D01D9002425468DF804208DF8C5
:101E800005801023294620460097FFF739FE761C6F
:101E90000834E4B23278002ACAD1C7E710B518482E
:101EA000006800EB80004100164CA069E269081A46
:101EB0001044E061A161144988420ED3B0FBF1F2F5
:101EC00001FB1200E0616078401CC0B26070022823
:101ED00001D900206070FFF7CFFD607838B101288C
:101EE00009D002280BD1BDE81040FFF755BDBDE871
:101EF000104000F00BB8BDE8104000F0B1B910BDC3
:101F00004C000020140000208096980038B54A4804
:101F100000684A4C2169411A01D5494A00E0002273
:101F200011446269114461612061B1F57A7F7DD30A
:101F3000002161612078401CC0B220706C2800D95B
:101F4000217021784FF00105C80717D13D48FEF7F1
:101F500051FA3C4821788030FEF74CFA0095102366
:101F6000352200212078FFF7CBFD00952078102343
:101F70000830C0B230220021FFF7C2FD21780320D3
:101F8000B1FBF0F200FB1210B8B92F48FEF732FA9D
:101F90002D4821788030FEF72DFA1023009533224A
:101FA00019462078FFF7ACFD009520781023083003
:101FB000C0B233221946FFF7A3FD2178880717D155
:101FC0002248FEF717FA214821788030FEF712FAEE
:101FD00000951023322220212078FFF791FD0095F3
:101FE000207810230830C0B235222021FFF788FD69
:101FF00021780620B1FBF0F200FB1210002819D165
:102000001348FEF7F7F9124821788030FEF7F2F90D
:1020100000951023312230212078FFF771FD0095C3
:10202000207810230830C0B2372200E002E03021CF
:10203000FFF766FD38BD00004C00002014000020B2
:1020400020A107006800002068010020680200202D
:102050006803002030B585B0C020ADF810001C200A
:102060008DF8130003208DF8120004A91748FFF71C
:10207000D1FA0020ADF804004FF48060ADF80A00FA
:102080000001ADF80C007820ADF808001048009071
:102090004BF6FF70ADF806000E4C69462046FFF780
:1020A00091FB01212046FFF744FB00240A4D285DE7
:1020B00000F022F90028FAD1641C1B2CF7DBFFF793
:1020C000C5FCFFF7F5FC05B030BD0000000C014079
:1020D000801A0600005400402C3000082DE9F05F03
:1020E000074649480468494E306A201A002801DA38
:1020F0004749084400F0B6FE02460B460020454919
:1021000000F058FD00F024FD70623462B02000F051
:10211000F3F80028FAD1002000F0EEF80028FAD1F8
:10212000102000F0E9F80028FAD1FFF7C1FC4FF4C5
:10213000805844464FF0FF394FF4003A364D01E0E5
:10214000641E0ED051462846FFF723FB0028F7D126
:102150002C4601212046FFF704FB4546DFF8BCA0D2
:1021600004E04846BDE8F09F6D1E0ED05146204663
:10217000FFF7D3FA0028F7D0002278212046FFF796
:1021800081FB4546DFF898A003E04846EAE76D1E6C
:1021900012D051462046FFF7C0FA0028F7D0254656
:1021A00040212846FFF777FB4446DFF878B0DFF898
:1021B00074A0ABF17C0B03E04846D3E7641E05D066
:1021C00051462846FFF7E5FA10B107E04846C9E74F
:1021D00059462846FFF7DDFA0028EFD00120B0600D
:1021E00001212846FFF7B1FA01210F48FFF74EF908
:1021F00037B1B06802E0B8F1010803D00028FAD185
:102200000020AFE74846ADE74C0000201400002056
:1022100020A10700006AF8400054004001000300BC
:1022200082000700800000106C00024070B50D466F
:1022300000F1B004E0B200F05FF80028FAD11020FD
:1022400040EA1514204600F057F80028FAD105F0AE
:102250000F04204600F050F80028FAD170BD0000AD
:1022600030B587B01D481E49006800EB8000400073
:10227000B0FBF1F01B49CA68904211D0C860486AAF
:1022800000F05CFE02460B4617A102A8FDF7D2FF44
:10229000012000210090102302AA0846FFF7A6FDA6
:1022A000FDF780FFC11700EB516121F07F01451A56
:1022B000FDF778FF302190FBF1F201FB120410349E
:1022C000FDF770FF00EBD07121F00101401AC2B29E
:1022D000E1B2E8B2FFF76AFD07B030BD4C00002064
:1022E000A086010014000020726174653A25382E22
:1022F00032666670730000002DE9F04781464FF4A6
:10230000805845464FF0FF374FF40036384C01E017
:102310006D1E0DD031462046FFF73BFA0028F7D15D
:1023200001212046FFF71DFA4546DFF8C8A004E06A
:102330003846BDE8F0876D1E0FD051462046FFF7A6
:10234000ECF90028F7D02546002278212846FFF72F
:1023500099FA4446DFF8A0A003E03846E9E7641E96
:1023600010D051462846FFF7D8F90028F7D02C4660
:1023700000212046FFF78FFA4546DFF87CA00AF1DE
:10238000020A03E03846D4E76D1E0BD051462046C2
:10239000FFF7C3F90028F7D049462046FFF77BFA3C
:1023A000454603E03846C4E76D1E0CD05146204632
:1023B000FFF7B3F90028F7D0254601212846FFF79B
:1023C000DCF9444603E03846B3E7641E0DD03146DD
:1023D0002846FFF7DEF90028F7D1054814300088B9
:1023E0000348183000880020A3E73846A1E7000022
:1023F0000054004001000300820007002DE9F0476F
:1024000081464FF4805845464FF0FF374FF4003671
:10241000384C01E06D1E0DD031462046FFF7B9F96A
:102420000028F7D101212046FFF79BF94546DFF848
:10243000C8A004E03846BDE8F0876D1E0FD05146B5
:102440002046FFF76AF90028F7D0254600227821B8
:102450002846FFF717FA4446DFF8A0A003E0384605
:10246000E9E7641E10D051462846FFF756F90028C8
:10247000F7D02C4640212046FFF70DFA4546DFF8FD
:102480007CA00AF1020A03E03846D4E76D1E0BD0A7
:1024900051462046FFF741F90028F7D0494620462B
:1024A000FFF7F9F9454603E03846C4E76D1E0CD046
:1024B00051462046FFF731F90028F7D02546012183
:1024C0002846FFF75AF9444603E03846B3E7641E4E
:1024D0000DD031462846FFF75CF90028F7D10548B2
:1024E000143000880348183000880020A3E73846DD
:1024F000A1E7000000540040010003008200070033
:1025000070470000054A002903D051690143516119
:1025100070475169814351617047000000100240CB
:10252000054A002903D0D1690143D1617047D169BF
:102530008143D1617047000000100240054A002924
:1025400003D0916901439161704791698143916121
:10255000704700000010024010B5264A516801F093
:102560000C01254B002927D0042927D0082927D082
:102570000360516801F0F0010909204B5C5C0168BF
:10258000E1404160546804F4E064240A1C5D21FACF
:1025900004F48460546804F46054E40A1B5DD94078
:1025A000C160526802F44042920B144B1B1F9A5CAC
:1025B000B1FBF2F1016110BD0360DAE70360D8E717
:1025C000516801F47011536803F48033022404EB62
:1025D000914133B153689B0307D5094B59430160BF
:1025E000C7E7074B59430160C3E7034B59430160F9
:1025F000BFE700000010024000127A000400002033
:1026000000093D00704700F001B800000CB5002241
:10261000019200922748016841F4803101604FF433
:10262000A063016801F4003100910199491C0191F6
:10263000009911B901999942F3D10168890302D532
:102640000121009100E000920099012930D11A493E
:102650000A6842F010020A600A6822F003020A6067
:102660000A6842F002020A604168416041684160C4
:10267000416841F480614160416821F47C1141600E
:10268000416841F4E8114160016841F080710160E6
:1026900001688901FCD5416821F00301416041686E
:1026A00041F0020141604168C1F381010229FAD180
:1026B0000CBD0000001002400020024002480168EA
:1026C000491C0160704700004C00002010B50F4805
:1026D000016841F00101016041680D4A114041600B
:1026E00001680C4A11400160016821F480210160F9
:1026F000416821F4FE0141604FF41F018160FFF742
:1027000082FF05494FF00060086010BD00100240D4
:102710000000FFF8FFFFF6FE08ED00E030B585B0E1
:1027200004464FF40070ADF8100003208DF812003D
:1027300018208DF81300164D04A92846FEF76AFFED
:102740002815ADF8100004208DF8130004A92846C0
:10275000FEF760FF00940020ADF80400ADF806001D
:10276000ADF80800ADF80C000C20ADF80A00094CDB
:102770006946204600F0E6F8012240F22551204645
:1027800000F0C4F80121204600F094F805B030BDF7
:10279000000801400038014030B585B004464FF4D0
:1027A0008060ADF8100003208DF8120018208DF81D
:1027B0001300164D04A92846FEF72CFFE814ADF8C7
:1027C000100004208DF8130004A92846FEF722FF0C
:1027D00000940020ADF80400ADF80600ADF8080044
:1027E000ADF80C000C20ADF80A00094C69462046F3
:1027F00000F0A8F8012240F22551204600F086F8AA
:102800000121204600F056F805B030BD000C014013
:102810000048004070B50E4C40F225552946204630
:1028200000F054F8002811D02946204600F03AF86C
:10283000204600F0E5F8074B074C1A68511C196058
:10284000A054B1F5FA7F01D30020186070BD0000DC
:10285000003801403C0000206804002070B50E4C98
:1028600040F225552946204600F030F8002811D0C6
:102870002946204600F016F8204600F0C1F8074B24
:10288000074C5A68511C5960A054B1F5FA7F01D326
:102890000020586070BD0000004800403C0000204F
:1028A0005C06002040F66A120A0A01219140C943E1
:1028B00001807047002904D0818941F40051818151
:1028C0007047818921F400518181704770B50024DF
:1028D00040F66A12C1F3421301F01F05012606FA01
:1028E00005F2012B0CD0022B0DD0838A1340090A6C
:1028F0008E40008830400BB100B10124204670BDED
:1029000083891340F3E7038A1340F0E710B540F6DC
:102910006A13C1F3421301F01F040121A140012BEE
:1029200007D0022B07D014303AB102680A43026084
:1029300010BD0C30F8E71030F6E702688A430260F9
:1029400010BD000030B585B004460D46208A4CF617
:10295000FF710840E98801432182A0894EF6F311F6
:102960000840A9882A8911436A8902431143A18139
:10297000A08A4FF6FF410840A9890143A182684619
:10298000FFF7EAFD1D48844201D1039800E0029858
:10299000A189090408D500EBC00101EB00102968EA
:1029A0004900B0FBF1F007E000EBC00101EB0010C3
:1029B00029688900B0FBF1F06422B0FBF2F1090153
:1029C0000B096FF018056B4300EB8300A3891D040E
:1029D0004FF0320307D503EBC000B0FBF2F000F07C
:1029E0000700084306E003EB0010B0FBF2F000F034
:1029F0000F000843208105B030BD000000380140C1
:102A00008088C0F308007047FEE7490050EAC12003
:102A100018BF04204A0D18BF40F0010040F2FF72B9
:102A2000B2EB515F08BF40F00200012808BF05204B
:102A3000704730380A2801D20120704700207047C3
:102A4000FEE74FF0FF30704704490A885206FCD574
:102A5000024AC1B2121D11807047000000380140C7
:102A6000FEF77AFC01212148FEF728FE2048214983
:102A70000068B0FBF1F0B0F1807F0DD220F07F4014
:102A80004FF0E024401E60610F216017FEF774FFD5
:102A90000020A061072020614FF4E1342046FFF7B9
:102AA0003DFE2046FFF778FEFFF7D4FAFEF7F5FE6D
:102AB000FEF7F6FF0028FBD10FA0FDF7AFFB124990
:102AC00001200860114D124C124E2868B0FBF4F141
:102AD00004FB110038B9306800F030FA02460B46AA
:102AE0000DA0FDF79BFBFFF7D9F9EEE700023000E0
:102AF00054000020A0860100696E69745F616C72E9
:102B0000656164790A000000500000204C0000203C
:102B100040420F00380000204650533A252E3266BE
:102B20000A00000010B500290AD00878002807D054
:102B300005487844FEF714F8002801D0002010BDA5
:102B40000248784410BD0000161100000E1100006C
:102B500021F00042A2F16052B2F5801F01F0004363
:102B600028BFD2F17F6C0BD95FEA001C43EAC20296
:102B700042EB507018BF704728BF20F0010070472B
:102B8000B2F5801FBCBF184670474FEA410C1CF5D8
:102B9000001F02D2084600F042BA70B500F079F981
:102BA00000000089FFF7F6BF4FF00040A0F580005D
:102BB000704700002DE9C04130B4DFF8A0C23CEA04
:102BC000111418BF3CEA131400F0EC8081EA0305ED
:102BD0001CEA111444EAD57418BF1CEA131500F05E
:102BE000C780A4EB05044FF0004545EAC12145EA42
:102BF000C32341EA505143EA525304F17F7499428E
:102C000004F500344FEAC0204FEAC22208BF9042C8
:102C100000F09C804FEA13650FF24016765D4FEA94
:102C2000134506FB05F7C7F1807706FB07F74FEA68
:102C3000D737A7FB03687642C8F58038A7FB06CED6
:102C400038BFA8F1010807FB08E64FF0000EA6FB0D
:102C5000028CE6FB03CEDCF1000CCEF1004E38BF57
:102C6000AEF1010EA6FB0C584FF000074FF0000527
:102C7000E6FB0E87A1FB08C6A0FB07CE16EB0E06EF
:102C800045F10005E1FB076515F1E04E7EBFA4F5B7
:102C900080345FEA46066D4116F1800745F1000574
:102CA0004FEA17274FEA066647EA0567A6F1DE46B0
:102CB000B6F1805F4FEA15251FD9384624F0010C84
:102CC00005EBC471BCF1FE6F01EB0C1102D8F0BC36
:102CD000BDE8008124425CBF01F5801E9EEAC47FEE
:102CE00002D4F0BCBDE80081244238D4F0BCA1F18C
:102CF000C041BDE8004100F01AB94FEAD22242EAD1
:102D000043524FEAD323A7FB02864FEAD02040EA82
:102D1000415007FB03661EEA0E0F4FEAD12105FB67
:102D2000026658BFA6EB0056B6EB00564FEA520EAD
:102D30004EEAC37E18EB0E0E56EB530EBDD518EBC4
:102D400002085E417F1C55F10005B6E74FF480157F
:102D50004FF000074FF000064FF00008ADE7F0BC61
:102D60004FF0000001F1C04101F00041BDE80081D9
:102D700011EA0C1F0CEA131500D00CE013EA0C1F2B
:102D800000F025804FF00000F0BC81EA030101F063
:102D90000041BDE80081F0BCBDE8004181EA0301CB
:102DA00000F0C5B8F0BCBDE8004170B500F071F8A6
:102DB000097EFC3E00F007B881EA03014FF00000F5
:102DC00001F00041704781EA030100F0B0B8F0BCA7
:102DD000BDE800414FF0000021497047FFFDFBF9BD
:102DE000F7F5F4F2F0EEEDEBE9E8E6E4E3E1E0DE3E
:102DF000DDDBDAD8D7D5D4D3D1D0CFCDCCCBCAC8B0
:102E0000C7C6C5C4C2C1C0BFBEBDBCBBBAB9B8B7D6
:102E1000B6B5B4B3B2B1B0AFAEADACABAAA9A8A8C9
:102E2000A7A6A5A4A3A3A2A1A09F9F9E9D9C9C9B97
:102E30009A99999897979695959493939291919042
:102E40008F8F8E8E8D8C8C8B8B8A898988888787D3
:102E50008685858484838382828181800000FF0748
:102E60000000F87F10F0004248BF4042B0FA80F303
:102E700010FA03F10AD0C3F11D0303F580634FEA92
:102E8000415002EB035202EBD12170474FF000009A
:102E900070470EF1020E2EF0030E5EF8046B364200
:102EA00005D4012A43EB030515F5001F12D80128AC
:102EB00041EB010C1CF5001F0CD80ED14FEAD17C60
:102EC00015F5001F0CEB4C0C0CF1020C08BF4CEB81
:102ED000D37C04E04FF0080C01E04FEAD37C0CEB0C
:102EE0004C0526FA05F606F00706B6F1040C06D2E4
:102EF0000EEB860CBDE870404CF0010C6047DFE83B
:102F00000CF0090B02024FF000414FF00000A1F558
:102F1000002170BD19461046012851EB010418BF6D
:102F2000D4F5001484BF002001F0004170BD0808F2
:102F3000A0F500114FEA31017047000043004FEA4D
:102F4000D30C4FEA3C0C43401FBF40070CF16051CB
:102F500013F0FE4F70471CF0006F03D100200CF0FF
:102F6000004170470CF0004343EA507010B540EA4E
:102F7000CC0000F00EF800BF000000924FEA000104
:102F8000FFF7D5BF4FF000414FF00000A1F5002141
:102F900070470EF1020E2EF0030E5EF8044B244231
:102FA00004D44FEA4102B2F17F4F11D84FEA4003F7
:102FB000B3F17F4F0CD80ED14FEAD07CB2F17F4FE6
:102FC0000CEB4C0C0CF1020C08BF4CEBD17C04E078
:102FD0004FF0080C01E04FEAD17C0CEB4C0324FAD3
:102FE00003F404F00704B4F1040C06D20EEB840CD5
:102FF000BDE810404CF0010C6047DFE80CF007081A
:1030000002024FF00040A0F5800010BD08464200CB
:1030100018BFD2F1807288BF00F0004010BDFF21C0
:1030200041EAD050C0057047FDF7E1BAAED580A89F
:103030003FD300408D142000A1C8DA1281EFD9F1EE
:10304000DB30A4A6AF00000000000000000000007C
:103050000000000000003E00000000000100000031
:103060000E02000E020000000000000050F856F8AA
:103070005600030003000000D8A4A664000000006E
:1030800003000000242AA45090000000000100006A
:10309000C0304888400000010100010000001E000F
:1030A00000000000000000000000F8060000000022
:1030B000010600000006F800000000060100000004
:1030C00004340E3404000000000000202020FC2006
:1030D00020000000010000000000808000000006C9
:1030E000030000002020202020000000000000003D
:1030F00000808000000000010100000000806018D6
:103100000600020100000000FC020202FC000001B7
:10311000010100000002FE000000010101010100A8
:10312000844222128C00010101010100840212126A
:10313000EC0000010101000060504C42FE00000064
:1031400000010100801E1212E200000101010000D6
:10315000F8141212E200000101010000060282725E
:103160000E00000001000000EC121212EC00000141
:10317000010100001C2222A27C00010101000000CC
:1031800000989800000000010100000000009898DD
:1031900000000003010000205050880404000000DB
:1031A0000001010050505050500000000000000489
:1031B0000488505020010100000000000008442451
:1031C0001800000101000000FE0131497E000102EB
:1031D00002020100C07A4678C0010101000101022B
:1031E000FE121212EC01010101010000FC020202B8
:1031F0008600000101010002FE0202847801010143
:1032000001000002FE123A028601010101010100E3
:1032100002FE123A0200010101000000FC0202223B
:10322000E600000101010002FE121012FE01010180
:10323000000101000202FE02020001010101010081
:10324000E00202FE0200000101000002FE22304AFC
:10325000860101010000010002FE0200C000010120
:1032600001010102FE0E300EFE010101000101020A
:10327000FE0E7082FE01010100010100FC0202024B
:10328000FC0000010101000002FE22221C000101DD
:1032900001000000FC020202FC0000010303020224
:1032A000FE2222629C010101000000008C92121497
:1032B000E6000100010100060202FE020200000118
:1032C00001010002FE020002FE00000101010002F5
:1032D0000E7280720E00000001000002FE02F00279
:1032E000FE0000010001000286483048860101000E
:1032F00000000102061AE01A0600000101010000A8
:103300008642320A860001010101010000FE02022C
:103310000000000704040000021C608000000000A0
:1033200000030000000202FE000000040407000089
:103330001008060810000000000000000000000057
:103340000008080808080800000002040000000047
:1033500000000000D0282828F0000001010101022F
:10336000FE100808F001010101010000F008080842
:103370009800000101010000F0080812FE000001A1
:1033800001010100F028282830000001010101009E
:1033900008FC0A0A0A00010101010100F0080810F6
:1033A000F800000505050302FE100808F001010100
:1033B000000101000808FA000000010101010100FC
:1033C00008080AF80000040404030002FE206898BC
:1033D00008010100010101000002FE0000000101DE
:1033E00001010108F808F008F001010101010108DC
:1033F000F8100808F001010100010100F0080808B8
:10340000F000000101010008F8100808F0040705A9
:1034100001010000F0080810F80000010105070094
:1034200008F810080800010101010100902828286F
:10343000D80001010101000008FC08080800000094
:1034400001010108F8000088F800000101000108EE
:1034500038C800C83800000001000008F808E0087B
:10346000F800000100010008986060980801010060
:1034700000010108186880C838000404070400002F
:103480009848281888000101010101000040BC0291
:1034900000000000030400000000FE000000000027
:1034A000030000000002BC40000000040300000014
:1034B000402040402000000000000000000000000C
:1034C00000000000000000000000000000000000FC
:1034D00000000000000000000038FCFC3800000084
:1034E00000000D0D000000000E1E00001E0E00006A
:1034F0000000000000000020F8F820F8F82000028A
:103500000F0F020F0F0200387C444747CC9800038E
:1035100006041C1C07030030300080C06030000C23
:10352000060301000C0C0080D87CE4BCD8400007E6
:103530000F0808070F080000101E0E000000000012
:10354000000000000000000000F0F80C0400000083
:103550000003070C0800000000040CF8F000000055
:1035600000080C0703000080A0E0C0C0E0A08000BD
:1035700002030101030200008080E0E0808000007F
:103580000000030300000000000000000000000035
:1035900000101E0E0000008080808080808000006F
:1035A000000000000000000000000000000000001B
:1035B00000000C0C00000000000080C06030000C17
:1035C00006030100000000F8FC04C424FCF8000716
:1035D0000F0908080F0700001018FCFC000000008D
:1035E00008080F0F080800080C84C4643C18000E7B
:1035F0000F0908080C0C00080C444444FCB80004F3
:103600000C0808080F0700C0E0B098FCFC80000020
:103610000000080F0F08007C7C4444C4C4840004EC
:103620000C0808080F0700F0F84C4444C08000075D
:103630000F0808080F07000C0C0484C47C3C000031
:10364000000F0F00000000B8FC444444FCB8000721
:103650000F0808080F0700387C444444FCF80000B9
:103660000808080C070300000000303000000000CC
:1036700000000606000000000000303000000000DE
:1036800000080E060000000080C06030180800002E
:10369000000103060C08004040404040404000024A
:1036A000020202020202000008183060C08000001E
:1036B000080C0603010000181C04C4E43C180000B8
:1036C00000000D0D000000F0F808C8C8F8F0000771
:1036D0000F080B0B0B0100E0F0988C98F0E0000F46
:1036E0000F0000000F0F0004FCFC4444FCB800086D
:1036F0000F0F08080F0700F0F80C04040C18000363
:10370000070C08080C060004FCFC040CF8F0000888
:103710000F0F080C07030004FCFC44E40C1C000819
:103720000F0F08080C0E0004FCFC44E40C1C0008FD
:103730000F0F0800000000F0F80C84848C98000340
:10374000070C0808070F00FCFC404040FCFC000F81
:103750000F0000000F0F00000004FCFC040000003C
:1037600000080F0F08000000000004FCFC04000724
:103770000F08080F07000004FCFCC0F03C0C000818
:103780000F0F00010F0E0004FCFC040000000008F5
:103790000F0F08080C0E00FCFC387038FCFC000F02
:1037A0000F0000000F0F00FCFC3870E0FCFC000F65
:1037B0000F0000000F0F00F0F80C040CF8F00003ED
:1037C000070C080C07030004FCFC44447C38000888
:1037D0000F0F0800000000F8FC040404FCF80007C8
:1037E0000F080E3C3F270004FCFC44C4FC380008D2
:1037F0000F0F00000F0F00183C6444C49C18000613
:103800000E0808080F0700001C0CFCFC0C1C000034
:1038100000080F0F080000FCFC000000FCFC000783
:103820000F0808080F0700FCFC000000FCFC00016A
:1038300003060C06030100FCFC008000FCFC0003F6
:103840000F0E030E0F03000C3CF0C0F03C0C000CFC
:103850000F0300030F0C00003C7CC0C07C3C000048
:1038600000080F0F0800001C0C84C4643C1C000EF0
:103870000F0908080C0E000000FCFC040400000006
:10388000000F0F080800003870E0C0800000000042
:1038900000000103070E0000000404FCFC0000000F
:1038A0000008080F0F0000080C0603060C080000B3
:1038B00000000000000000000000000000000020E8
:1038C000202020202020200000030704000000000A
:1038D0000000000000000000A0A0A0E0C000000761
:1038E0000F0808070F080004FCFC2060C0800008D7
:1038F0000F0708080F0700C0E020202060400007E5
:103900000F0808080C040080C06024FCFC000007BD
:103910000F0808070F0800C0E0A0A0A0E0C0000743
:103920000F0808080C040040F8FC440C18000008BC
:103930000F0F0800000000C0E02020C0E02000279A
:103940006F48487F3F000004FCFC4020E0C00008B6
:103950000F0F00000F0F00000020ECEC0000000033
:1039600000080F0F0800000000000020ECEC000031
:10397000307040407F3F0004FCFC80C060200008A5
:103980000F0F01030E0C00000004FCFC00000000FF
:1039900000080F0F080000E0E060C060E0C0000F0A
:1039A0000F000F000F0F0020E0C02020E0C000003B
:1039B0000F0F00000F0F00C0E0202020E0C0000724
:1039C0000F0808080F070020E0C02020E0C00040DA
:1039D0007F7F48080F0700C0E02020C0E0200007DC
:1039E0000F08487F7F400020E0C0602060C00008D2
:1039F0000F0F080000000040E0A0202060400004FD
:103A00000C09090B0E04002020F8FC202000000007
:103A100000070F080C0400E0E00000E0E0000007F1
:103A20000F0808070F080000E0E00000E0E00000D9
:103A300003070C0C070300E0E0000000E0E00007D3
:103A40000F0C070C0F07002060C080C0602000082A
:103A50000C0703070C0800E0E0000000E0E000476E
:103A60004F4848683F1F00606020A0E06020000CC5
:103A70000E0B09080C0C00004040F8BC04040000C8
:103A80000000070F080800000000BCBC0000000098
:103A900000000F0F000000000404BCF840400000CC
:103AA00008080F07000000080C040C080C040000B4
:103AB0000000000000000080C0603060C08000078F
:103AC00007040404070700C9BD00F000000000005F
:103AD000FF0000000000F00000007F2020202020D8
:103AE0003F20202020207F0000B6AB08080888680F
:103AF000180FE808080888080C0800004021110D7C
:103B000041817F0105093161000000BFC6242424E2
:103B1000A4FEA32200244800FF0080000010080635
:103B200001FF000102020202FF01010100BCBC1002
:103B30001010FF1010888888FF88888C0800000407
:103B400044827F018081462810282641C04000B46D
:103B5000F3202020202020A07FA020202020302023
:103B60000000404020100C030001060810206020D7
:103B700000D1A74030119690909196909098141390
:103B8000503000040404040444847E060504040444
:103B90000604000002400000000000A00000000039
:103BA00005400000000000C8000000000C400000BC
:103BB0000000409C00000000194000000020BCBE36
:103BC0000000000034400000BFC91B8E000000044C
:103BD000B5400000504BCFD06607E2CF0100000097
:103BE0006C4100003E8251AADFEEA73401000000C4
:103BF000D9420000DCB5A0E23A301F97FFFFFFFF7B
:103C0000B4450000FD25A0C8E9A3C14FFFFFFFFF99
:103C1000FF3F00000000008000000000FF3F0000A8
:103C20000000008000000000643C0008000000204C
:103C30006800000028010008CC3C00086800002053
:103C4000300F0000440100081C0000004300000089
:103C5000F8FFFFFF0C0000000E0000000F00000046
:103C60002E00000002040608000000000102030408
:103C70000102030406070809080000000000000014
:103C80000000000000000000000000000000000034
:103C90000000000000000000000000000000000024
:103CA0000000000000000000000000000000000014
:103CB000000000000000000000A24A040000000014
:0C3CC000000000000102030406070809D0
:04000005080000ED02
:00000001FF
